S00F0000486F6D65776F726B2E73333799
S11300000000022091010000BD010000BD010000BC
S1130010BD010000BD010000BD010000BD010000E4
S1130020BD010000BD010000BD010000BD010000D4
S1130030BD010000BC010000BD010000BD010000C5
S1130040BD010000611D0000BD010000BD010000F4
S1130050BD010000BD010000BD010000BD010000A4
S1130060BD010000BD010000BD0100006D1D0000C8
S11300702D1D0000BD010000BD010000BD010000F8
S1130080BD010000BD010000BD010000BD01000074
S1130090BD010000BD010000BD010000BD01000064
S11300A0BD010000BD010000BD010000BD01000054
S11300B0BD010000BD010000BD010000BD01000044
S11300C0BD010000BD010000BD010000BD01000034
S11300D0BD010000BD010000BD01000010B5054CCC
S11300E0237833B9044B13B10448AFF300800123E0
S11300F0237010BD3C0100200000000068220000B5
S113010008B5034B1BB103490348AFF3008008BD96
S1130110000000004001002068220000154B002B65
S113012008BF134B9D46A3F5803A00218B460F462A
S11301301348144A121A01F09BFF0F4B002B00D0F6
S113014098470E4B002B00D0984700200021040054
S11301500D000D48002802D00C48AFF3008001F0D8
S113016063FF2000290001F007FE01F049FF00BFF2
S11301700000080000000220000000000000000051
S11301803C0100209001002000000000000000005D
S1130190064880470649074A074B9A42BEBF51F8B2
S11301A0040B42F8040BF8E7FFF7B8FF350300002F
S11301B074220000000000203C010020FEE700BF84
S11301C080B400AF034BDB6C1B0EDBB21846BD469C
S11301D080BC7047B081E00F80B582B000AF00F002
S11301E01FF87860074B5B6803F00F037A6822FA04
S11301F003F37B60044A7B6813607B681846083706
S1130200BD4680BD00800C400800002080B400AFD3
S1130210024B1846BD4680BC704700BF006CDC0230
S113022080B582B000AF334BDB6A03F47053B3F58F
S1130230805F0AD0B3F5005F03D0B3F5006F08D038
S11302400BE02D4B1B687B6047E04FF400437B6061
S113025043E02A4B1B687B603FE0264BDB6803F4DA
S1130260E063B3F5007F1BD0B3F5007F05D8002B06
S113027024D0B3F5807F16D02BE0B3F5806F09D07E
S1130280B3F5A06F03D0B3F5407F06D021E01C4B3B
S11302907B6021E01B4B7B601EE01B4B7B601BE003
S11302A01A4B7B6018E0FFF78BFF0346122B02D931
S11302B0174B7B6010E0174B7B600DE0FFF780FF6E
S11302C00346122B02D9144B7B6005E0134B7B6071
S11302D002E000237B6000BF00BF064B1B689B0B42
S11302E003F0070301337A68B2FBF3F318460837C7
S11302F0BD4680BD00800C400400002000000020AA
S1130300003FAB01406F4001809FD500C0D8A700DB
S113031040B56400C0CF6A00804F120040420F0015
S113032080B400AF024B1B681846BD4680BC7047C2
S11303300000002080B400AF034B044A9A6000BF61
S1130340BD4680BC704700BF00ED00E00000000027
S113035080B483B000AF786000BF054B5A6E7B68F1
S11303601340002BF9D100BF0C37BD4680BC704749
S113037000A0084080B483B000AF7860054B9A6A4F
S11303807B68DB43034913408B6200BF0C37BD46D7
S113039080BC704700A0084080B500AF0022284907
S11303A0002001F097F800222549012001F092F87D
S11303B000222349022001F08DF800222049032065
S11303C001F088F800221E49042001F083F800227D
S11303D01B49052001F07EF800221949062001F08E
S11303E079F800221649072001F074F80022FF2151
S11303F0002001F02DF90022FF21012001F028F94D
S11304000022FF21022001F023F90022FF21032012
S113041001F01EF90022FF21042001F019F9002245
S1130420FF21052001F014F90022FF21062001F02C
S11304300FF90022FF21072001F00AF900BF80BD57
S113044000F00FF080B582B000AF0346FB710121CC
S1130450244800F0F7FA0321234800F057FB402119
S1130460224800F0BDF9012000F09CFC0121204845
S113047000F0E8FA4FF0FF30FFF77CFF1D4800F072
S1130480C7FE0121082000F021FF0121102000F007
S11304901DFF0121802000F019FF01214FF480701D
S11304A000F014FF01214FF4007000F00FFFFB79FE
S11304B0002B0DD04FF4402001F088F94FF4803028
S11304C000F0E2FE0C4BDB6F0B4A43F00803D367EA
S11304D0FFF762FF4FF0FF30FFF73AFF00BF083726
S11304E0BD4680BDD0433E0002001E0080002A00AD
S11304F000362C005022000000800C4080B487B0ED
S113050000AFF860B9607A60FB6803F10473DA0045
S1130510BB6813449B007B617B697A681A6000BFE7
S11305201C37BD4680BC704780B485B000AF78608E
S113053039607B6803F10473DA003B6813449B0061
S1130540FB60FB681B6818461437BD4680BC7047C7
S113055080B485B000AF78607B68002B03D07B68E3
S1130560B3F5004F00BF7B68B3FA83F3DBB2C3F18A
S11305701F03FB60FB6818461437BD4680BC7047F8
S113058080B400AF034BDB6C1B0CDBB21846BD46DA
S113059080BC7047B081E00F80B582B000AFFFF738
S11305A0EFFF03464A2B04D0792B02D0482B23D0EB
S11305B024E0154B1B699BB21B029BB203F47C53D2
S11305C0FB80114B9B691B091B0103F0F0039AB2DA
S11305D0FB881343FB800C4BDB691B0903F00F03FF
S11305E09AB2FB881343FB80FB88B3F5017F01D3E8
S11305F0064B04E0064B02E0054B00E000231846DE
S11306000837BD4680BD00BFD0FF0FE000366E0145
S11306100048E80180B584B000AF78600123FB6036
S1130620FFF7BAFF02467B68934204D80023FB60BD
S11306300023BB600BE0FFF7AFFF03465B007A6863
S11306409A4202D80123BB6001E00223BB60FA682E
S11306501E210848FFF752FF064B5B6823F48072A3
S1130660BB681B02034913434B6000BF1037BD46F0
S113067080BD00BF00800C4080B485B000AF7860BE
S11306803960204B5B6803F00703FB60FB68012BB8
S113069001D9042B02D10023FB7202E00123FB7277
S11306A000BF7B68184A934207D9FB7A002B01D01C
S11306B0052300E00423FB6016E07B68124A9342A2
S11306C00BD87B68114A934207D9FB7A002B01D0DF
S11306D0032300E00123FB6006E0FB7A002B01D03A
S11306E0022300E00023FB60064B5B6823F0070253
S11306F00449FB6813434B6000BF1437BD4680BCFC
S1130700704700BF00000C400048E8010024F400DA
S113071080B582B000AF0E4BDB6B002B14BF0123FE
S11307200023FB710A4B41F67132DA63FFF76EFD69
S1130730034600211846FFF79FFFFB79002B02D0E8
S1130740034B0022DA6300BF0837BD4680BD00BFFB
S113075000000C4080B584B000AF786039600C4B69
S1130760DB6B002B14BF01230023FB73084B41F602
S11307707132DA6339687868FFF77EFFFB7B002B00
S113078002D0034B0022DA6300BF1037BD4680BDA0
S113079000000C4080B483B000AF7860094B5B6DFF
S11307A003F00103002B07D100BF064B1A6D7B68D1
S11307B01340002BF9D100E000BF0C37BD4680BCCC
S11307C0704700BF00800C4080B400AF00BFBD463E
S11307D080BC704780B400AF00BFBD4680BC70478A
S11307E090B585B000AF786039607B681B0903F071
S11307F00F03FB60FB68013B0C2B00F20F8101A28D
S113080052F823F0390800001D0A00001D0A0000F8
S11308106D0800001D0A00001D0A0000B508000054
S113082007090000C90900001D0A00001D0A000094
S11308301D0A0000950800003B68002B02D03B68AD
S1130840082B00BFFFF764FF774B1B6823F4E032EB
S11308503B68013B9B03744913430B60FFF7BCFCEB
S1130860B8600021B868FFF775FFD8E03B68002B3B
S113087003D03B68B3F5007F00BF3868FFF768FE1C
S11308803860694B9B6823F00F0267493B68134348
S11308908B60C4E03868FFF75BFE0346013B3B60B6
S11308A0614B5B6823F480723B681B025E4913430F
S11308B04B60B4E03B68002B03D03B68B3F5007F8A
S11308C000BFFFF725FFFFF787FC02463B68B2FB3A
S11308D0F3F31846FFF79EFE3868FFF739FE3860D9
S11308E0514B5B6823F00F024F493B6813434B6045
S11308F0FFF772FCB8600021B868FFF72BFFB868F7
S1130900FFF788FE8BE07B68484A93421ED0474A33
S1130910934203D8464A934207D054E0454A93424F
S113092025D0454A93423ED04DE00420FFF732FFE4
S11309303868FFF70DFE38603B4B9B6E23F0F002E6
S11309403B681B01384913438B663CE00420FFF7E6
S113095021FF3868FFF7FCFD3860334B9B6E23F4AE
S113096070623B681B02304913438B662BE03B6883
S11309700F2B02D93B68802B00BF0420FFF70AFF2E
S11309803868FFF7E5FD3860274B9B6E23F440542D
S11309901020FFF7DDFD02463B689B1A1B03224A29
S11309A0234393660FE00420FFF7F4FE3868FFF753
S11309B0CFFD38601C4B9B6E23F003021A493B6841
S11309C013438B6600BF2AE07B681C4A934203D022
S11309D01B4A934210D020E04020FFF7DBFE38682A
S11309E0FFF7B6FD3860104B1B6F23F003020E496E
S11309F03B6813430B6710E04020FFF7CBFE3868D9
S1130A00FFF7A6FD3860084B1B6F23F030023B68EC
S1130A101B01054913430B6700BF00E000BF00BF83
S1130A201437BD4690BD00BF00800C4080261600E0
S1130A308016120080002A0080062E0090071A00FB
S1130A4090171C0080B586B000AF78600B46FB7031
S1130A5000233B617B681B0A03F00F03013B092B56
S1130A6044D801A252F823F0A30A0000A90A000006
S1130A70910A0000ED0A0000ED0A0000AF0A000030
S1130A80B90A0000ED0A0000ED0A0000C30A0000E4
S1130A90184B7B61FFF7A0FB03461846FFF7BAFD2E
S1130AA012E0154B7B610FE0144B7B610CE0144B9F
S1130AB07B6101233B6107E0124B7B6110233B61A7
S1130AC002E0114B7B6100BF7B681B0B03F01F032B
S1130AD0FB603B69002B02D03869FFF75BFEFB78B3
S1130AE01A46F9687869FFF709FD00E000BF183776
S1130AF0BD4680BD40800C4008800C4044800C40C2
S1130B0058800C4060800C4078800C4080B588B0E0
S1130B1000AF78600B46FB700323FB610323FB7675
S1130B2000233B617B6803F00F03FB60FB68013B20
S1130B30062B00F2288101A252F823F0590B000081
S1130B402F0C00002F0C0000870D0000870D000003
S1130B50F50C00001F0D0000FB78023B082B00F28F
S1130B60148101A252F823F08D0B0000970B0000B2
S1130B70A10B0000E30B00008B0D00008B0D0000A7
S1130B808B0D00008B0D00008B0D00000423FB6116
S1130B900023FB7631E00323FB610123FB762CE089
S1130BA00223FB610223FB76FFF7F6FC03460133C5
S1130BB01846FFF72FFDFFF7B3FB0246764B9A4228
S1130BC006D9764B1B68754A43F06003136014E042
S1130BD0724B1B6823F06003704A43F020031360D8
S1130BE00BE00123FB610323FB76FFF7D5FC0346EF
S1130BF001331846FFF70EFD00BFFB7E01220121E1
S1130C00184600F0EDF8FFF783FDFFF7DDFD634ABA
S1130C10FB695362FFF7E0FAB860B868FFF7FAFCC3
S1130C200021B868FFF796FDFFF7D4FDB0E0FB782C
S1130C30013B092B00F2AB8001A252F823F000BF64
S1130C40690C00006F0C00007F0C00008F0D000089
S1130C508F0D00008F0C00008F0D00008F0D000021
S1130C608F0D0000AB0C000000237B6122E0012209
S1130C700121002000F0B4F802237B611AE0012274
S1130C800121012000F0ACF801237B6112E0FFF7A1
S1130C90A3FAB860B868FFF7BDFC012204214048FC
S1130CA0FFF72CFC03237B6104E000237B61012319
S1130CB03B6100BFFB68022B0DD1384B9B6A23F4C8
S1130CC0803323F003037A691A433B691B043349D5
S1130CD013438B625CE0314B9B6A23F4801323F053
S1130CE00C037A6992001A433B691B052B49134391
S1130CF08B624DE0FB78072B02D0092B07D047E02D
S1130D00264B1B68254A23F08053136006E0234BCF
S1130D101B68224A43F08053136000BF38E0FB781D
S1130D20032B14D0092B22D0022B00D030E0012257
S1130D300121002000F054F8184B40225A6200BFF1
S1130D40164BDB6A03F48033002BF9D01AE001223E
S1130D500121012000F044F8104B60225A6200BFC8
S1130D600E4BDB6A03F40033002BF9D00AE00B4B83
S1130D7020225A6200BF094BDB6A03F40043002BB4
S1130D80F9D000BF04E000BF02E000BF00E000BFF4
S1130D902037BD4680BD00BF0048E80100800C40FC
S1130DA040800C4080B483B000AF78600B4B9B6DE7
S1130DB003F00803002B0CD17B6803F007037B606E
S1130DC0064BDB6F23F0070204497B681343CB67B0
S1130DD000E000BF0C37BD4680BC704700800C406B
S1130DE080B586B000AF0346FB710B46BB7113465A
S1130DF07B71FB79042B48D801A252F823F000BF81
S1130E004D0E00003F0E0000230E0000150E0000E2
S1130E10310E000001233B610223FB6001237B614F
S1130E201DE004233B610823FB6003237B6116E080
S1130E3010233B612023FB6005237B610FE04023EB
S1130E403B618023FB6007237B6108E04FF48073E0
S1130E503B614FF40073FB6009237B6100BFBB79E6
S1130E60002B0ED00B4A3B6913627B79002B0DD00B
S1130E7000BF79690848FFF757FB0346002BF8D0F9
S1130E8004E0044AFB68136200E000BF1837BD4663
S1130E9080BD00BF00800C402C800C4080B487B023
S1130EA000AFF860B9607A60FB6803F10473DA009C
S1130EB0BB6813449B007B617B697A681A6000BF3E
S1130EC01C37BD4680BC704780B485B000AFF86065
S1130ED0B9607A60FB681A68BB68DB431A407B68B8
S1130EE01A43FB681A6000BF1437BD4680BC7047C4
S1130EF080B483B000AF7860044A7B68C2F81C31C8
S1130F0000BF0C37BD4680BC704700BF0060004086
S1130F1080B483B000AF03463960FB71FB79002BCA
S1130F200DD0FB79012B0AD0FB79022B07D0FB797A
S1130F30032B04D0FB79042B01D0FB79052B012270
S1130F403B6802FA03F30749FA7918461346DB00B3
S1130F5013449B000B441433186000BF0C37BD4688
S1130F6080BC70470060004080B483B000AF03468B
S1130F703960FB71FB79002B0DD0FB79012B0AD072
S1130F80FB79022B07D0FB79032B04D0FB79042BCC
S1130F9001D0FB79052B01223B6802FA03F30749D0
S1130FA0FA7918461346DB0013449B000B441033B4
S1130FB0186000BF0C37BD4680BC7047006000401D
S1130FC080B586B000AFB9607A601A460346FB73F9
S1130FD01346BB7300237B61FB7B002B0DD0FB7B93
S1130FE0012B0AD0FB7B022B07D0FB7B032B04D005
S1130FF0FB7B042B01D0FB7B052B7B68072B0ED8D6
S11310007B689B00072202FA03F1FA7B7B689B0052
S113101002FA03F31A461A48FFF756FF10E07B68FA
S1131020083B7B617B699B00072202FA03F1FA7B90
S11310307B699B0002FA03F31A461248FFF744FF48
S1131040BB7B1A4679681048FFF728FF97F82030D1
S11310501A4679680D48FFF721FF01227B6802FADE
S113106003F31846FFF744FF97F824301A467968CB
S11310700748FFF713FF00BF1837BD4680BD00BF08
S11310800061004004610040086100400C610040C0
S11310901061004080B584B000AFB9607B60034646
S11310A0FB731346BB73FB7B002B0DD0FB7B012B27
S11310B00AD0FB7B022B07D0FB7B032B04D0FB7BEA
S11310C0042B01D0FB7B052BBB7B002B0DD07B6855
S11310D0002B05D0FB7BB9681846FFF745FF04E0F9
S11310E0FB7BB9681846FFF713FFBB68072B20D8B2
S11310F02D49FA7B1346DB0013449B000B44043355
S11311001A68BB689B000F2101FA03F3DB43134009
S1131110B97BBA68920001FA02F211462248FA7BBE
S113112019431346DB0013449B0003440433196042
S113113025E01D49FA7B1346DB0013449B000B4456
S113114008331A68BB6803F18043083B9B000F21F6
S113115001FA03F3DB4302EA0301BA7BBB6803F140
S11311608043083B9B0002FA03F30F48FA7B1943C0
S11311701346DB0013449B00034408331960BB7B14
S1131180002B0DD17B68002B05D0FB7BB96818467A
S1131190FFF7EAFE04E0FB7BB9681846FFF7B8FEE8
S11311A000BF1037BD4680BD0060004080B483B0EE
S11311B000AF0346FB71FB79002B06D0084B1B687C
S11311C0074A43F00103136005E0054B1B68044A1A
S11311D023F00103136000BF0C37BD4680BC704789
S11311E000A0084080B487B000AFF860B9607A60AE
S11311F0FB6803F10473DA00BB6813449B007B6152
S11312007B697A681A6000BF1C37BD4680BC704792
S113121080B584B000AF78601A4B5B68FB60002037
S1131220FFF7C4FFFB6823F4830323F01F03FB6071
S11312307B685B68FA681343FB607B681B7A1A4619
S1131240FB681343FB607B685B7A1A46FB681343B5
S1131250FB607B68DB68FA681343FB607B681B8A6E
S11312601A46FB681343FB60064AFB6853607B68BD
S11312701B78002B02D00120FFF798FF00BF103726
S1131280BD4680BD00A0084080B485B000AF786042
S11312900D4B5B68FB60FB6823F48033FB607B6869
S11312A0002B08D0B3F5803F00D005E0FB6843F481
S11312B08033FB6000E000BF034AFB68536000BF5B
S11312C01437BD4680BC704700A0084080B483B08A
S11312D000AF03460A46FB8013467B717B79002BE3
S11312E006D0094B9A68FB88074913438B6006E0D4
S11312F0054B9A68FB88DB43034913408B6000BFAE
S11313000C37BD4680BC704700A0084080B584B04F
S113131000AFF860B9601346FB71FB68072B00F25D
S1131320B38001A252F823F04913000071130000A6
S113133099130000C1130000E91300001114000008
S11313403914000061140000BB681F2B06DCBB6865
S1131350FA7919464F48FFF745FF96E0BB68203BF2
S1131360BB60BB68FA7919464B48FFF73BFF8CE03A
S1131370BB681F2B06DCBB68FA7919464748FFF7A0
S113138031FF82E0BB68203BBB60BB68FA79194639
S11313904348FFF727FF78E0BB681F2B06DCBB68D8
S11313A0FA7919463F48FFF71DFF6EE0BB68203B02
S11313B0BB60BB68FA7919463B48FFF713FF64E04A
S11313C0BB681F2B06DCBB68FA7919463748FFF760
S11313D009FF5AE0BB68203BBB60BB68FA79194639
S11313E03348FFF7FFFE50E0BB681F2B06DCBB68E9
S11313F0FA7919462F48FFF7F5FE46E0BB68203B13
S1131400BB60BB68FA7919462B48FFF7EBFE3CE05A
S1131410BB681F2B06DCBB68FA7919462748FFF71F
S1131420E1FE32E0BB68203BBB60BB68FA79194639
S11314302348FFF7D7FE28E0BB681F2B06DCBB68F8
S1131440FA7919461F48FFF7CDFE1EE0BB68203B22
S1131450BB60BB68FA7919461B48FFF7C3FE14E06A
S1131460BB681F2B06DCBB68FA7919461748FFF7DF
S1131470B9FE0AE0BB68203BBB60BB68FA79194639
S11314801348FFF7AFFE00E000BF00BF1037BD46B2
S113149080BD00BF40A0084050A0084044A00840C0
S11314A054A0084048A0084058A008404CA0084058
S11314B05CA00840CCA00840B4A00840D0A00840DC
S11314C0B8A00840D4A00840BCA00840D8A0084058
S11314D0C0A0084080B487B000AFF860B9607A60FB
S11314E0FB68072B00F2AC8001A252F823F000BF86
S11314F01115000035150000591500007D15000078
S1131500A1150000C9150000F1150000191600000E
S11315104E4B1B6C7B61BB68DB437A6913407B6178
S1131520BA687B6813407A6913437B61474A7B69D5
S1131530136486E0454B5B6C7B61BB68DB437A6973
S113154013407B61BA687B6813407A6913437B61FB
S11315503E4A7B69536474E03C4B9B6C7B61BB6883
S1131560DB437A6913407B61BA687B6813407A690C
S113157013437B61354A7B69936462E0334BDB6CD4
S11315807B61BB68DB437A6913407B61BA687B6823
S113159013407A6913437B612C4A7B69D36450E01E
S11315A02A4BD3F8CC307B61BB68DB437A691340A8
S11315B07B61BA687B6813407A6913437B61234A71
S11315C07B69C2F8CC303CE0204BD3F8D0307B614F
S11315D0BB68DB437A6913407B61BA687B6813405C
S11315E07A6913437B61194A7B69C2F8D03028E0D9
S11315F0164BD3F8D4307B61BB68DB437A69134064
S11316007B61BA687B6813407A6913437B610F4A34
S11316107B69C2F8D43014E00C4BD3F8D8307B612A
S1131620BB68DB437A6913407B61BA687B6813400B
S11316307A6913437B61054A7B69C2F8D83000E0BC
S113164000BF00BF1C37BD4680BC704700A00840E7
S113165080B487B000AFF860B9607A60FB68072B8C
S113166000F2AC8001A252F823F000BF8D160000F6
S1131670B1160000D5160000F91600001D17000071
S1131680451700006D170000951700004E4B1B6DA9
S11316907B61BB68DB437A6913407B61BA687B6812
S11316A013407A6913437B61474A7B69136586E07B
S11316B0454B5B6D7B61BB68DB437A6913407B619F
S11316C0BA687B6813407A6913437B613E4A7B693D
S11316D0536574E03C4B9B6D7B61BB68DB437A696B
S11316E013407B61BA687B6813407A6913437B615A
S11316F0354A7B69936562E0334BDB6D7B61BB6884
S1131700DB437A6913407B61BA687B6813407A696A
S113171013437B612C4A7B69D36550E02A4BD3F891
S1131720B4307B61BB68DB437A6913407B61BA6880
S11317307B6813407A6913437B61234A7B69C2F84F
S1131740B4303CE0204BD3F8B8307B61BB68DB435A
S11317507A6913407B61BA687B6813407A691343E2
S11317607B61194A7B69C2F8B83028E0164BD3F87C
S1131770BC307B61BB68DB437A6913407B61BA6828
S11317807B6813407A6913437B610F4A7B69C2F813
S1131790BC3014E00C4BD3F8C0307B61BB68DB4336
S11317A07A6913407B61BA687B6813407A69134392
S11317B07B61054A7B69C2F8C03000E000BF00BF0E
S11317C01C37BD4680BC704700A0084080B483B07D
S11317D000AF7860064B5B6823F4E01204497B6831
S11317E013434B6000BF0C37BD4680BC704700BF3D
S11317F000A0084080B485B000AF78601A4B5B69E4
S1131800DBB29B00DBB203F03C03FB73164B1B699A
S11318109B09DBB203F00303DAB2FB7B1343FB73D4
S11318207B68FA7B9A70104B1B69DBB203F03F03B1
S1131830DAB27B685A700C4B9B691B09DBB21B0143
S1131840FB73094BDB691B09DBB203F00F03DAB24C
S1131850FB7B1343FB737B68FA7B1A7000BF14375E
S1131860BD4680BC704700BFD0FF0FE080B483B09A
S113187000AF78607B680D4A93420BD07B680C4ABA
S1131880934207D07B680B4A934203D07B680A4A91
S1131890934201D1012300E0002303F00103DBB2F2
S11318A018460C37BD4680BC704700BF000001409D
S11318B00004014000080140000C014080B584B0E0
S11318C000AF786039607868FFF7D0FF0023FB60D1
S11318D03B681B7883F00103DBB2002B02D07B68EA
S11318E002225A607B6800225A623B689B781A067F
S11318F03B68DB781B041A433B689B799B021A43C1
S11319003B68DB791B0213433A68127A13433A6843
S11319105278002A01D0402200E0002213433A68A2
S1131920527A002A01D0802200E0002213433A6850
S1131930927A002A01D0202200E0002213433A6860
S1131940D27A002A01D0102200E0002213433A6820
S1131950127B002A01D0082200E000221343FB601E
S11319603B681B79002B02D04FF4005200E00022A8
S11319703B685B79002B02D04FF0805300E00023DA
S11319801343FA681343FB607B68FA681A603B6888
S11319901B78002B02D07B6801225A6000BF1037ED
S11319A0BD4680BD80B483B000AF0346FB7197F998
S11319B00730002B0BDBFB7903F01F02064997F974
S11319C007305B09012000FA02F241F8232000BF2E
S11319D00C37BD4680BC704700E100E080B483B0A2
S11319E000AF03463960FB7197F90730002B0ADB1F
S11319F03B68DAB20C4997F907305201D2B20B4472
S1131A0083F800230AE03B68DAB20849FB7903F063
S1131A100F03043B5201D2B20B441A7600BF0C37B9
S1131A20BD4680BC704700BF00E100E000ED00E06F
S1131A3080B483B000AF7860044A7B68C2F81C317C
S1131A4000BF0C37BD4680BC704700BF006000403B
S1131A5080B584B002AF396011461A460346FB7163
S1131A600B46BB7113467B71BA79F8793B7C0193C1
S1131A707B79009313463A683968FFF7A1FA00BFEF
S1131A800837BD4680BD000080B400AF034BDB6C5B
S1131A901B0EDBB21846BD4680BC7047B081E00F18
S1131AA080B483B000AF78604FF6FF7318460C37EC
S1131AB0BD4680BC704780B483B000AF78607B685B
S1131AC05B6A18460C37BD4680BC704780B483B04F
S1131AD000AF786039607B683A689A6100BF0C3760
S1131AE0BD4680BC704780B483B000AF7860396075
S1131AF07B68DA683B681A437B68DA6000BF0C379E
S1131B00BD4680BC704780B582B000AF7860396054
S1131B107868FFF7C5FF7B683A68DA6100BF083769
S1131B20BD4680BD80B582B000AF0E4B01221A6461
S1131B30FFF7AAFF0346FB713B1D1846FFF75AFE49
S1131B40FB790F2B0AD93B79022B07D9064B1B686B
S1131B5023F05003044A43F01003136000BF083716
S1131B60BD4680BD00000C40C0800C4080B483B0F2
S1131B7000AF00237B6002E07B6801337B607B68FD
S1131B80034A9342F8DD00BF0C37BD4680BC704762
S1131B906F11010080B586B000AFB8813981BA8079
S1131BA00023FB7591E00023BB7587E000237B7560
S1131BB03B7BFA7D9A420DD17B7BBA7D9A4209D157
S1131BC0FA7D464911F8123043F0010301F812304E
S1131BD001237B753B7AFA7D9A421FD17B7ABA7DC9
S1131BE09A421BD1BB7D002B18D0BB7D022B15D88C
S1131BF0BB7D022B08D1FB7D384A5B0013445A7825
S1131C0042F001025A7007E0FB7D344A5B00134442
S1131C105A7842F010025A7001237B753B79FA7DA1
S1131C209A420DD17B79BA7D9A4209D1FA7D2B492A
S1131C3011F8123043F0080301F8123001237B75C8
S1131C407B7D83F00103DBB2002B31D0BB7D032B02
S1131C502ED801A252F823F0691C00007B1C00005E
S1131C608D1C00009F1C0000FA7D1C4911F81230E5
S1131C706FF3C30301F812301AE0FB7D174A5B00CF
S1131C8013445A786FF304125A7011E0FB7D134A1F
S1131C905B0013445A786FF300025A7008E0FA7D2F
S1131CA00E4911F812306FF3000301F8123000BF2F
S1131CB00A4800F04DF9BB7D0133BB75BB7D032B96
S1131CC07FF674AFFB7D0133FB75FB7D032B7FF641
S1131CD06AAF00BF1837BD4680BD00BF7C0100203D
S1131CE080B582B000AF0F48FFF7E5FE78607868F2
S1131CF000F0C6F900F0E8F903465A4203F0030382
S1131D0002F0030258BF5342FB70074B1B78FA786A
S1131D109A42E8D0044AFB78137000BF0837BD46E6
S1131D2080BD00BF000001405801002080B500AF15
S1131D30FFF7D6FF01210248FFF7C8FE00BF80BDB0
S1131D400004014080B500AF044B01221A704FF427
S1131D500070FFF76DFE00BF80BD00BF8A01002048
S1131D6080B500AFFFF7EEFF00BF80BD80B500AFC8
S1131D70FFF7E8FF00BF80BD80B586B002AFFFF774
S1131D80D1FE0020FEF75EFB012201210320FFF7B4
S1131D9027F804214F48FEF723FD01214E48FEF7A2
S1131DA051FE01214D48FEF74DFE01214C48FEF73E
S1131DB049FE0123012209210120FFF76BF93B466B
S1131DC000221A605A609A601A7301233B7001233F
S1131DD07B700A23BB7001214248FFF784FE43F65F
S1131DE009514048FFF78FFE0C20FFF7DBFD0B2065
S1131DF0FFF7D8FD0120FFF7D5FD01210C20FFF7E7
S1131E00EDFD03210B20FFF7E9FD04210120FFF77D
S1131E10E5FD3B4619463448FFF750FD3B4619465D
S1131E203048FFF74BFD01230093002301220921D1
S1131E300120FFF70DFE2D4B1A782D4B1A702C4BF9
S1131E4000225A702B4B00221A702A4B00225A701F
S1131E50264B1A78284B1A70274B03225A70274BAB
S1131E6000221A70254B1B78002B10D0204B5B7876
S1131E70032B06D11E4B00225A70204B00221A70ED
S1131E8005E01B4B5B780133DAB2194B5A70174BE0
S1131E901A78194B1A70174A1549174B107852784B
S1131EA012021043002260F30F02087849780902F5
S1131EB00843002160F30F0118785B781B02184374
S1131EC0002360F30F031846FFF764FEFFF74EFE8E
S1131ED0C8E700BF4081040000520400006204000F
S1131EE000D2040000040140000001405801002019
S1131EF06C01002068010020740100208A01002088
S1131F0080B483B000AF0346FB71FB79002B03D090
S1131F10054B01221A6602E0034B00221A6600BF39
S1131F200C37BD4680BC704700A0084080B483B025
S1131F3000AF786000BF054B5A6E7B681340002BDE
S1131F40F9D100BF0C37BD4680BC704700A00840E3
S1131F5080B586B000AF78604FF0FF30FFF7E6FF42
S1131F600120FFF7CDFF0023BB753CE00023FB7588
S1131F7033E0BA7DF97D21481346DB009B1A9B00B0
S1131F8003440B440E331B783B61BA7DF97D1B4837
S1131F901346DB009B1A9B0003440B441B78FB6035
S1131FA0BB7D5B007A6813441B881A46FB7D42FAAA
S1131FB003F303F00103002B06D0FB683969012207
S1131FC01846FFF7A3F905E0FB68396900221846B3
S1131FD0FFF79CF9FB7D0133FB75FB7D0D2BC8D905
S1131FE0BB7D0133BB75BB7D062BBFD90020FFF73A
S1131FF087FF00BF1837BD4680BD00BF0C0000201E
S113200008B5074B044613B10021AFF30080054B1C
S11320101868836A03B19847204600F00BF900BFA3
S1132020000000006422000070B500250C4E0D4C29
S1132030A41BA410A54209D100F0FEF800250A4E05
S11320400A4CA41BA410A54205D170BD56F8253036
S113205098470135EEE756F8253098470135F2E701
S11320603401002034010020340100203801002014
S113207003460244934200D1704703F8011BF9E779
S113208038B50D4B05461C68A36B7BB9182000F0CE
S11320904FF80A4A0A4BA063C0E90023094B012206
S11320A083600B2383810023C0E904230022A36BF4
S11320B01D615A6138BD00BFD00000200E33CDAB86
S11320C034126DE6ECDE050038B5134B1C68A36BC7
S11320D07BB9182000F02CF8104A114BA063C0E91A
S11320E00023104B012283600B2383810023C0E96A
S11320F00423A16B0C480A694B6950430B4C04FB45
S11321000300A2FB04230344541C43F10005C1E96A
S1132110044525F0004038BDD00000200E33CDAB7F
S113212034126DE6ECDE05002DF451582D7F954CEC
S1132130024B0146186800F003B800BFD00000202D
S113214070B5CD1C25F0030508350C2D38BF0C25C2
S1132150002D064601DBA94203D90C23336000207D
S113216070BD00F057F8214A1468214691B9204CFB
S113217023681BB9304600F03DF8206029463046FC
S113218000F038F8431C24D10C233046336000F0AF
S113219042F8E4E70B685B1B18D40B2B0FD90B60D8
S11321A0CC18CD50304600F036F804F10B00231D56
S11321B020F00700C31AD3D05A42E250D0E74B684C
S11321C08C4216BF636013600C46EBE70C4649680B
S11321D0CCE7C41C24F00304A04205D0211A3046E5
S11321E000F008F80130CFD02560DBE75C01002067
S11321F06001002038B50023054C054608462360DD
S113220000F00AF8431C02D1236803B12B6038BDE7
S11322108C01002070477047044A05491368002B5D
S113222008BF0B461844106018467047640100202C
S113223090010020FEE700BFF8B500BFF8BC08BC61
S11322409E467047F8B500BFF8BC08BC9E46704770
S113225001000000030040000C000000000000002A
S10F226000000000D4000020000000007A
S10B226CB0DEFF7F0100000059
S1132274006CDC0200800000809FD500010105078A
S1132284070304020302040605060D0E0E0E0D0DCB
S11322940D0D0E0E0E0E0D0D0101050707030402AC
S11322A40302040605060F1010100F0F0F0F101071
S11322B410100F0F010105070703040203020406AB
S11322C40506111212121111111112121212111106
S11322D40101050707030402030204060506131C8F
S11322E41C1C131313131C1C1C1C131300010507BF
S11322F4060203010302040604051D1E1E1E1D1D01
S11323041D1D1E1E1E1E1D1D0001050706020301C0
S11323140302040604051F2020201F1F1F1F202062
S113232420201F1F010105070703040203020406FA
S113233405062122222221212121222222222121B5
S1132344D400002000000000000000000000000091
S11323540000000000000000000000000000000075
S11323640000000000000000000000000000000065
S11323740000000000000000000000000000000055
S11323840000000000000000000000000000000045
S11323940000000000000000000000000000000035
S10F23A40000000001010000DD0000004A
S90301916A
