S00F0000486F6D65776F726B2E73333799
S11300000000022091010000BD010000BD010000BC
S1130010BD010000BD010000BD010000BD010000E4
S1130020BD010000BD010000BD010000BD010000D4
S1130030BD010000BC010000BD010000BD010000C5
S1130040BD01000025230000BD010000BD0100002A
S1130050BD010000BD010000BD010000BD010000A4
S1130060BD010000BD010000BD01000031230000FE
S113007095220000BD010000BD010000BD0100008B
S1130080BD010000BD010000BD010000BD01000074
S1130090BD010000BD010000BD010000BD01000064
S11300A0BD010000BD010000BD010000BD01000054
S11300B0BD010000BD010000BD010000BD01000044
S11300C0BD010000BD010000BD010000BD01000034
S11300D0BD010000BD010000BD01000010B5054CCC
S11300E0237833B9044B13B10448AFF300800123E0
S11300F0237010BD74010020000000001C290000C2
S113010008B5034B1BB103490348AFF3008008BD96
S113011000000000780100201C290000154B002B72
S113012008BF134B9D46A3F5803A00218B460F462A
S11301301348144A121A02F0F5FA0F4B002B00D0A0
S113014098470E4B002B00D0984700200021040054
S11301500D000D48002802D00C48AFF3008002F0D7
S1130160BDFA2000290002F0E9F802F0A3FA00BF6A
S11301700000080000000220000000000000000051
S113018074010020C80100200000000000000000ED
S1130190064880470649074A074B9A42BEBF51F8B2
S11301A0040B42F8040BF8E7FFF7B8FF350300002F
S11301B0282900000000002074010020FEE700BF91
S11301C080B400AF034BDB6C1B0EDBB21846BD469C
S11301D080BC7047B081E00F80B582B000AF00F002
S11301E01FF87860074B5B6803F00F037A6822FA04
S11301F003F37B60044A7B6813607B681846083706
S1130200BD4680BD00800C400800002080B400AFD3
S1130210024B1846BD4680BC704700BF006CDC0230
S113022080B582B000AF334BDB6A03F47053B3F58F
S1130230805F0AD0B3F5005F03D0B3F5006F08D038
S11302400BE02D4B1B687B6047E04FF400437B6061
S113025043E02A4B1B687B603FE0264BDB6803F4DA
S1130260E063B3F5007F1BD0B3F5007F05D8002B06
S113027024D0B3F5807F16D02BE0B3F5806F09D07E
S1130280B3F5A06F03D0B3F5407F06D021E01C4B3B
S11302907B6021E01B4B7B601EE01B4B7B601BE003
S11302A01A4B7B6018E0FFF78BFF0346122B02D931
S11302B0174B7B6010E0174B7B600DE0FFF780FF6E
S11302C00346122B02D9144B7B6005E0134B7B6071
S11302D002E000237B6000BF00BF064B1B689B0B42
S11302E003F0070301337A68B2FBF3F318460837C7
S11302F0BD4680BD00800C400400002000000020AA
S1130300003FAB01406F4001809FD500C0D8A700DB
S113031040B56400C0CF6A00804F120040420F0015
S113032080B400AF024B1B681846BD4680BC7047C2
S11303300000002080B400AF034B044A9A6000BF61
S1130340BD4680BC704700BF00ED00E00000000027
S113035080B483B000AF786000BF054B5A6E7B68F1
S11303601340002BF9D100BF0C37BD4680BC704749
S113037000A0084080B483B000AF7860054B9A6A4F
S11303807B68DB43034913408B6200BF0C37BD46D7
S113039080BC704700A0084080B500AF0022284907
S11303A0002001F023F900222549012001F01EF963
S11303B000222349022001F019F9002220490320D8
S11303C001F014F900221E49042001F00FF9002263
S11303D01B49052001F00AF900221949062001F001
S11303E005F900221649072001F000F90022FF2137
S11303F0002001F0B9F90022FF21012001F0B4F935
S11304000022FF21022001F0AFF90022FF21032086
S113041001F0AAF90022FF21042001F0A5F900222D
S1130420FF21052001F0A0F90022FF21062001F0A0
S11304309BF90022FF21072001F096F900BF80BD3F
S113044000F00FF080B582B000AF0346FB710121CC
S1130450244800F083FB0321234800F0E3FB402100
S1130460224800F049FA012000F028FD012120482B
S113047000F074FB4FF0FF30FFF77CFF1D4800F0E5
S113048053FF0121082000F0ADFF0121102000F0EE
S1130490A9FF0121802000F0A5FF01214FF4807005
S11304A000F0A0FF01214FF4007000F09BFFFB79E6
S11304B0002B0DD04FF4402001F014FA4FF480309B
S11304C000F06EFF0C4BDB6F0B4A43F00803D3675D
S11304D0FFF762FF4FF0FF30FFF73AFF00BF083726
S11304E0BD4680BDD0433E0002001E0080002A00AD
S11304F000362C000429000000800C4080B584B034
S113050000AF03463960FB710023FB600023BB602E
S1130510FB790E2B6BD801A252F823F05905000089
S1130520630500006D0500007705000081050000EB
S11305308B050000950500009F050000A90500003B
S1130540B3050000BD050000C7050000D10500008B
S1130550DB050000E50500000123FB600C23BB6004
S113056046E00023FB602023BB6041E00323FB60E3
S11305702723BB603CE00223FB600C23BB6037E015
S11305800023FB601C23BB6032E00323FB600C23CD
S1130590BB602DE00423FB600C23BB6028E0002338
S11305A0FB601E23BB6023E00523FB602723BB60A5
S11305B01EE00023FB602223BB6019E00023FB60E4
S11305C02323BB6014E00723FB600C23BB600FE014
S11305D00523FB600C23BB600AE00623FB600C23AD
S11305E0BB6005E00723FB601D23BB6000E000BF88
S11305F03B68002B05D00122B968F86800F012FFAF
S113060004E00022B968F86800F00CFF00BF10375E
S1130610BD4680BD80B487B000AFF860B9607A6031
S1130620FB6803F10473DA00BB6813449B007B612D
S11306307B697A681A6000BF1C37BD4680BC70476E
S113064080B485B000AF786039607B6803F10473CF
S1130650DA003B6813449B00FB60FB681B68184688
S11306601437BD4680BC704780B485B000AF786055
S11306707B68002B03D07B68B3F5004F00BF7B6819
S1130680B3FA83F3DBB2C3F11F03FB60FB681846C4
S11306901437BD4680BC704780B400AF034BDB6C9D
S11306A01B0CDBB21846BD4680BC7047B081E00F1E
S11306B080B582B000AFFFF7EFFF03464A2B04D0AA
S11306C0792B02D0482B23D024E0154B1B699BB215
S11306D01B029BB203F47C53FB80114B9B691B09E7
S11306E01B0103F0F0039AB2FB881343FB800C4B0D
S11306F0DB691B0903F00F039AB2FB881343FB80E9
S1130700FB88B3F5017F01D3064B04E0064B02E0FE
S1130710054B00E0002318460837BD4680BD00BFE6
S1130720D0FF0FE000366E010048E80180B584B0C8
S113073000AF78600123FB60FFF7BAFF02467B68D5
S1130740934204D80023FB600023BB600BE0FFF757
S1130750AFFF03465B007A689A4202D80123BB606C
S113076001E00223BB60FA681E210848FFF752FF2C
S1130770064B5B6823F48072BB681B020349134376
S11307804B6000BF1037BD4680BD00BF00800C40E9
S113079080B485B000AF78603960204B5B6803F0AB
S11307A00703FB60FB68012B01D9042B02D1002352
S11307B0FB7202E00123FB7200BF7B68184A93427C
S11307C007D9FB7A002B01D0052300E00423FB604A
S11307D016E07B68124A93420BD87B68114A934215
S11307E007D9FB7A002B01D0032300E00123FB602F
S11307F006E0FB7A002B01D0022300E00023FB601B
S1130800064B5B6823F007020449FB6813434B6003
S113081000BF1437BD4680BC704700BF00000C40C9
S11308200048E8010024F40080B582B000AF0E4B0C
S1130830DB6B002B14BF01230023FB710A4B41F631
S11308407132DA63FFF7E2FC034600211846FFF732
S11308509FFFFB79002B02D0034B0022DA6300BF19
S11308600837BD4680BD00BF00000C4080B584B091
S113087000AF786039600C4BDB6B002B14BF012395
S11308800023FB73084B41F67132DA6339687868E8
S1130890FFF77EFFFB7B002B02D0034B0022DA63C1
S11308A000BF1037BD4680BD00000C4080B483B04B
S11308B000AF7860094B5B6D03F00103002B07D197
S11308C000BF064B1A6D7B681340002BF9D100E082
S11308D000BF0C37BD4680BC704700BF00800C4091
S11308E080B400AF00BFBD4680BC704780B400AF89
S11308F000BFBD4680BC704790B585B000AF78603E
S113090039607B681B0903F00F03FB60FB68013B44
S11309100C2B00F20F8101A252F823F051090000C0
S1130920350B0000350B000085090000350B000075
S1130930350B0000CD0900001F0A0000E10A000089
S1130940350B0000350B0000350B0000AD0900002D
S11309503B68002B02D03B68082B00BFFFF764FF05
S1130960774B1B6823F4E0323B68013B9B037449DB
S113097013430B60FFF730FCB8600021B868FFF741
S113098075FFD8E03B68002B03D03B68B3F5007FCC
S113099000BF3868FFF768FE3860694B9B6823F036
S11309A00F0267493B6813438B60C4E03868FFF764
S11309B05BFE0346013B3B60614B5B6823F4807242
S11309C03B681B025E4913434B60B4E03B68002B59
S11309D003D03B68B3F5007F00BFFFF725FFFFF7A7
S11309E0FBFB02463B68B2FBF3F31846FFF79EFE9F
S11309F03868FFF739FE3860514B5B6823F00F020B
S1130A004F493B6813434B60FFF7E6FBB860002196
S1130A10B868FFF72BFFB868FFF788FE8BE07B68A8
S1130A20484A93421ED0474A934203D8464A9342C7
S1130A3007D054E0454A934225D0454A93423ED0DC
S1130A404DE00420FFF732FF3868FFF70DFE3860F1
S1130A503B4B9B6E23F0F0023B681B013849134368
S1130A608B663CE00420FFF721FF3868FFF7FCFDAC
S1130A703860334B9B6E23F470623B681B02304931
S1130A8013438B662BE03B680F2B02D93B68802B0A
S1130A9000BF0420FFF70AFF3868FFF7E5FD386060
S1130AA0274B9B6E23F440541020FFF7DDFD0246D4
S1130AB03B689B1A1B03224A234393660FE00420DE
S1130AC0FFF7F4FE3868FFF7CFFD38601C4B9B6ED0
S1130AD023F003021A493B6813438B6600BF2AE0E4
S1130AE07B681C4A934203D01B4A934210D020E0F7
S1130AF04020FFF7DBFE3868FFF7B6FD3860104B87
S1130B001B6F23F003020E493B6813430B6710E08D
S1130B104020FFF7CBFE3868FFF7A6FD3860084B8E
S1130B201B6F23F030023B681B01054913430B671D
S1130B3000BF00E000BF00BF1437BD4690BD00BF3A
S1130B4000800C40802616008016120080002A00C7
S1130B5080062E0090071A0090171C0080B586B0FE
S1130B6000AF78600B46FB7000233B617B681B0A77
S1130B7003F00F03013B092B44D801A252F823F0E0
S1130B80BB0B0000C10B0000A90B0000050C00000A
S1130B90050C0000C70B0000D10B0000050C000081
S1130BA0050C0000DB0B0000184B7B61FFF714FB06
S1130BB003461846FFF7BAFD12E0154B7B610FE0C0
S1130BC0144B7B610CE0144B7B6101233B6107E018
S1130BD0124B7B6110233B6102E0114B7B6100BF30
S1130BE07B681B0B03F01F03FB603B69002B02D0E7
S1130BF03869FFF75BFEFB781A46F9687869FFF7F6
S1130C0009FD00E000BF1837BD4680BD40800C40A0
S1130C1008800C4044800C4058800C4060800C409C
S1130C2078800C4080B588B000AF78600B46FB70CC
S1130C300323FB610323FB7600233B617B6803F002
S1130C400F03FB60FB68013B062B00F2288101A225
S1130C5052F823F0710C0000470D0000470D00000E
S1130C609F0E00009F0E00000D0E0000370E0000C6
S1130C70FB78023B082B00F2148101A252F823F006
S1130C80A50C0000AF0C0000B90C0000FB0C000028
S1130C90A30E0000A30E0000A30E0000A30E00008C
S1130CA0A30E00000423FB610023FB7631E0032341
S1130CB0FB610123FB762CE00223FB610223FB761C
S1130CC0FFF7F6FC034601331846FFF72FFDFFF745
S1130CD027FB0246764B9A4206D9764B1B68754A27
S1130CE043F06003136014E0724B1B6823F060034D
S1130CF0704A43F0200313600BE00123FB610323DC
S1130D00FB76FFF7D5FC034601331846FFF70EFDCB
S1130D1000BFFB7E01220121184600F0EDF8FFF729
S1130D2083FDFFF7DDFD634AFB695362FFF754FA65
S1130D30B860B868FFF7FAFC0021B868FFF796FDC1
S1130D40FFF7D4FDB0E0FB78013B092B00F2AB8048
S1130D5001A252F823F000BF810D0000870D0000AE
S1130D60970D0000A70E0000A70E0000A70D0000BD
S1130D70A70E0000A70E0000A70E0000C30D000080
S1130D8000237B6122E001220121002000F0B4F85D
S1130D9002237B611AE001220121012000F0ACF85A
S1130DA001237B6112E0FFF717FAB860B868FFF718
S1130DB0BDFC012204214048FFF72CFC03237B6186
S1130DC004E000237B6101233B6100BFFB68022B2D
S1130DD00DD1384B9B6A23F4803323F003037A69E3
S1130DE01A433B691B04334913438B625CE0314B68
S1130DF09B6A23F4801323F00C037A6992001A434C
S1130E003B691B052B4913438B624DE0FB78072B91
S1130E1002D0092B07D047E0264B1B68254A23F054
S1130E208053136006E0234B1B68224A43F080532F
S1130E30136000BF38E0FB78032B14D0092B22D0B9
S1130E40022B00D030E001220121002000F054F8F0
S1130E50184B40225A6200BF164BDB6A03F48033FE
S1130E60002BF9D01AE001220121012000F044F8FE
S1130E70104B60225A6200BF0E4BDB6A03F400334E
S1130E80002BF9D00AE00B4B20225A6200BF094B19
S1130E90DB6A03F40043002BF9D000BF04E000BF79
S1130EA002E000BF00E000BF2037BD4680BD00BFA8
S1130EB00048E80100800C4040800C4080B483B0BE
S1130EC000AF78600B4B9B6D03F00803002B0CD133
S1130ED07B6803F007037B60064BDB6F23F007029C
S1130EE004497B681343CB6700E000BF0C37BD4661
S1130EF080BC704700800C4080B586B000AF0346CC
S1130F00FB710B46BB7113467B71FB79042B48D8EC
S1130F1001A252F823F000BF650F0000570F000034
S1130F203B0F00002D0F0000490F000001233B611F
S1130F300223FB6001237B611DE004233B61082342
S1130F40FB6003237B6116E010233B612023FB60DD
S1130F5005237B610FE040233B618023FB60072373
S1130F607B6108E04FF480733B614FF40073FB60D6
S1130F7009237B6100BFBB79002B0ED00B4A3B6970
S1130F8013627B79002B0DD000BF79690848FFF705
S1130F9057FB0346002BF8D004E0044AFB681362B5
S1130FA000E000BF1837BD4680BD00BF00800C4084
S1130FB02C800C4080B487B000AFF860B9607A60D0
S1130FC0FB6803F10473DA00BB6813449B007B6184
S1130FD07B697A681A6000BF1C37BD4680BC7047C5
S1130FE080B485B000AFF860B9607A60FB681A68B5
S1130FF0BB68DB431A407B681A43FB681A6000BF76
S11310001437BD4680BC704780B483B000AF7860AD
S1131010044A7B68C2F81C3100BF0C37BD4680BC53
S1131020704700BF0060004080B483B000AF034647
S11310303960FB71FB79002B0DD0FB79012B0AD0B1
S1131040FB79022B07D0FB79032B04D0FB79042B0B
S113105001D0FB79052B01223B6802FA03F307490F
S1131060FA7918461346DB0013449B000B441433EF
S1131070186000BF0C37BD4680BC7047006000405C
S113108080B483B000AF03463960FB71FB79002B59
S11310900DD0FB79012B0AD0FB79022B07D0FB7909
S11310A0032B04D0FB79042B01D0FB79052B0122FF
S11310B03B6802FA03F30749FA7918461346DB0042
S11310C013449B000B441033186000BF0C37BD461B
S11310D080BC70470060004080B586B000AFB96046
S11310E07A601A460346FB731346BB7300237B6185
S11310F0FB7B002B0DD0FB7B012B0AD0FB7B022B4F
S113110007D0FB7B032B04D0FB7B042B01D0FB7BA0
S1131110052B7B68072B0ED87B689B00072202FAFD
S113112003F1FA7B7B689B0002FA03F31A461A4820
S1131130FFF756FF10E07B68083B7B617B699B00EF
S1131140072202FA03F1FA7B7B699B0002FA03F39C
S11311501A461248FFF744FFBB7B1A4679681048C9
S1131160FFF728FF97F820301A4679680D48FFF7F3
S113117021FF01227B6802FA03F31846FFF744FFBC
S113118097F824301A4679680748FFF713FF00BF21
S11311901837BD4680BD00BF0061004004610040B7
S11311A0086100400C6100401061004080B584B0CB
S11311B000AFB9607B600346FB731346BB73FB7BD4
S11311C0002B0DD0FB7B012B0AD0FB7B022B07D01D
S11311D0FB7B032B04D0FB7B042B01D0FB7B052B77
S11311E0BB7B002B0DD07B68002B05D0FB7BB96843
S11311F01846FFF745FF04E0FB7BB9681846FFF784
S113120013FFBB68072B20D82D49FA7B1346DB005C
S113121013449B000B4404331A68BB689B000F21E2
S113122001FA03F3DB431340B97BBA68920001FA75
S113123002F211462248FA7B19431346DB00134499
S11312409B0003440433196025E01D49FA7B1346CF
S1131250DB0013449B000B4408331A68BB6803F19A
S11312608043083B9B000F2101FA03F3DB4302EAAE
S11312700301BA7BBB6803F18043083B9B0002FA7D
S113128003F30F48FA7B19431346DB0013449B0016
S1131290034408331960BB7B002B0DD17B68002B02
S11312A005D0FB7BB9681846FFF7EAFE04E0FB7B38
S11312B0B9681846FFF7B8FE00BF1037BD4680BDB9
S11312C00060004080B483B000AF0346FB71FB793B
S11312D0002B06D0084B1B68074A43F00103136038
S11312E005E0054B1B68044A23F00103136000BFAB
S11312F00C37BD4680BC704700A0084080B487B05E
S113130000AFF860B9607A60FB6803F10473DA0037
S1131310BB6813449B007B617B697A681A6000BFD9
S11313201C37BD4680BC704780B584B000AF786080
S11313301A4B5B68FB600020FFF7C4FFFB6823F4D3
S1131340830323F01F03FB607B685B68FA68134325
S1131350FB607B681B7A1A46FB681343FB607B685F
S11313605B7A1A46FB681343FB607B68DB68FA68A8
S11313701343FB607B681B8A1A46FB681343FB60BC
S1131380064AFB6853607B681B78002B02D001205F
S1131390FFF798FF00BF1037BD4680BD00A008408E
S11313A080B485B000AF78600D4B5B68FB60FB6870
S11313B023F48033FB607B68002B08D0B3F5803FB7
S11313C000D005E0FB6843F48033FB6000E000BF1D
S11313D0034AFB68536000BF1437BD4680BC7047A6
S11313E000A0084080B483B000AF03460A46FB80E7
S11313F013467B717B79002B06D0094B9A68FB88D6
S1131400074913438B6006E0054B9A68FB88DB436E
S1131410034913408B6000BF0C37BD4680BC704746
S113142000A0084080B584B000AFF860B9601346EE
S1131430FB71FB68072B00F2B38001A252F823F082
S11314406114000089140000B1140000D9140000D4
S11314500115000029150000511500007915000040
S1131460BB681F2B06DCBB68FA7919464F48FFF7A7
S113147045FF96E0BB68203BBB60BB68FA79194620
S11314804B48FFF73BFF8CE0BB681F2B06DCBB68B7
S1131490FA7919464748FFF731FF82E0BB68203BE1
S11314A0BB60BB68FA7919464348FFF727FF78E029
S11314B0BB681F2B06DCBB68FA7919463F48FFF767
S11314C01DFF6EE0BB68203BBB60BB68FA79194620
S11314D03B48FFF713FF64E0BB681F2B06DCBB68C7
S11314E0FA7919463748FFF709FF5AE0BB68203BF1
S11314F0BB60BB68FA7919463348FFF7FFFE50E03A
S1131500BB681F2B06DCBB68FA7919462F48FFF726
S1131510F5FE46E0BB68203BBB60BB68FA79194620
S11315202B48FFF7EBFE3CE0BB681F2B06DCBB68D7
S1131530FA7919462748FFF7E1FE32E0BB68203B01
S1131540BB60BB68FA7919462348FFF7D7FE28E049
S1131550BB681F2B06DCBB68FA7919461F48FFF7E6
S1131560CDFE1EE0BB68203BBB60BB68FA79194620
S11315701B48FFF7C3FE14E0BB681F2B06DCBB68E7
S1131580FA7919461748FFF7B9FE0AE0BB68203B11
S1131590BB60BB68FA7919461348FFF7AFFE00E059
S11315A000BF00BF1037BD4680BD00BF40A008404B
S11315B050A0084044A0084054A0084048A0084057
S11315C058A008404CA008405CA00840CCA00840AB
S11315D0B4A00840D0A00840B8A00840D4A0084057
S11315E0BCA00840D8A00840C0A0084080B487B080
S11315F000AFF860B9607A60FB68072B00F2AC803A
S113160001A252F823F000BF291600004D16000075
S11316107116000095160000B9160000E1160000CE
S113162009170000311700004E4B1B6C7B61BB682F
S1131630DB437A6913407B61BA687B6813407A693B
S113164013437B61474A7B69136486E0454B5B6CBB
S11316507B61BB68DB437A6913407B61BA687B6852
S113166013407A6913437B613E4A7B69536474E097
S11316703C4B9B6C7B61BB68DB437A6913407B61A9
S1131680BA687B6813407A6913437B61354A7B6986
S1131690936462E0334BDB6C7B61BB68DB437A6948
S11316A013407B61BA687B6813407A6913437B619A
S11316B02C4A7B69D36450E02A4BD3F8CC307B614D
S11316C0BB68DB437A6913407B61BA687B6813406B
S11316D07A6913437B61234A7B69C2F8CC303CE0CE
S11316E0204BD3F8D0307B61BB68DB437A6913406D
S11316F07B61BA687B6813407A6913437B61194A3A
S11317007B69C2F8D03028E0164BD3F8D4307B6123
S1131710BB68DB437A6913407B61BA687B6813401A
S11317207A6913437B610F4A7B69C2F8D43014E0B1
S11317300C4BD3F8D8307B61BB68DB437A69134028
S11317407B61BA687B6813407A6913437B61054AFD
S11317507B69C2F8D83000E000BF00BF1C37BD462B
S113176080BC704700A0084080B487B000AFF86028
S1131770B9607A60FB68072B00F2AC8001A252F8D2
S113178023F000BFA5170000C9170000ED170000E3
S113179011180000351800005D18000085180000BD
S11317A0AD1800004E4B1B6D7B61BB68DB437A694F
S11317B013407B61BA687B6813407A6913437B6189
S11317C0474A7B69136586E0454B5B6D7B61BB686B
S11317D0DB437A6913407B61BA687B6813407A699A
S11317E013437B613E4A7B69536574E03C4B9B6DBC
S11317F07B61BB68DB437A6913407B61BA687B68B1
S113180013407A6913437B61354A7B69936562E0CF
S1131810334BDB6D7B61BB68DB437A6913407B61CF
S1131820BA687B6813407A6913437B612C4A7B69ED
S1131830D36550E02A4BD3F8B4307B61BB68DB43FB
S11318407A6913407B61BA687B6813407A691343F1
S11318507B61234A7B69C2F8B4303CE0204BD3F867
S1131860B8307B61BB68DB437A6913407B61BA683B
S11318707B6813407A6913437B61194A7B69C2F818
S1131880B83028E0164BD3F8BC307B61BB68DB432F
S11318907A6913407B61BA687B6813407A691343A1
S11318A07B610F4A7B69C2F8BC3014E00C4BD3F85F
S11318B0C0307B61BB68DB437A6913407B61BA68E3
S11318C07B6813407A6913437B61054A7B69C2F8DC
S11318D0C03000E000BF00BF1C37BD4680BC70476D
S11318E000A0084080B483B000AF7860064B5B680A
S11318F023F4E01204497B6813434B6000BF0C37A8
S1131900BD4680BC704700BF00A0084080B485B0CD
S113191000AF78601A4B5B69DBB29B00DBB203F06B
S11319203C03FB73164B1B699B09DBB203F00303F7
S1131930DAB2FB7B1343FB737B68FA7B9A70104B20
S11319401B69DBB203F03F03DAB27B685A700C4BBD
S11319509B691B09DBB21B01FB73094BDB691B0988
S1131960DBB203F00F03DAB2FB7B1343FB737B6838
S1131970FA7B1A7000BF1437BD4680BC704700BFA5
S1131980D0FF0FE080B483B000AF78607B680D4A6D
S113199093420BD07B680C4A934207D07B680B4A76
S11319A0934203D07B680A4A934201D1012300E0A9
S11319B0002303F00103DBB218460C37BD4680BC9C
S11319C0704700BF000001400004014000080140CE
S11319D0000C014080B584B000AF7860396078684D
S11319E0FFF7D0FF0023FB603B681B7883F0010303
S11319F0DBB2002B02D07B6802225A607B68002293
S1131A005A623B689B781A063B68DB781B041A43CE
S1131A103B689B799B021A433B68DB791B021343A7
S1131A203A68127A13433A685278002A01D0402265
S1131A3000E0002213433A68527A002A01D080223F
S1131A4000E0002213433A68927A002A01D020224F
S1131A5000E0002213433A68D27A002A01D010220F
S1131A6000E0002213433A68127B002A01D00822C6
S1131A7000E000221343FB603B681B79002B02D07B
S1131A804FF4005200E000223B685B79002B02D047
S1131A904FF0805300E000231343FA681343FB60C4
S1131AA07B68FA681A603B681B78002B02D07B685D
S1131AB001225A6000BF1037BD4680BD80B483B098
S1131AC000AF0346FB7197F90730002B0BDBFB7962
S1131AD003F01F02064997F907305B09012000FA59
S1131AE002F241F8232000BF0C37BD4680BC70478A
S1131AF000E100E080B483B000AF03463960FB71BD
S1131B0097F90730002B0ADB3B68DAB20C4997F9E6
S1131B1007305201D2B20B4483F800230AE03B6839
S1131B20DAB20849FB7903F00F03043B5201D2B245
S1131B300B441A7600BF0C37BD4680BC704700BF0B
S1131B4000E100E000ED00E080B483B000AF786015
S1131B50044A7B68C2F81C3100BF0C37BD4680BC08
S1131B60704700BF0060004080B584B002AF3960A8
S1131B7011461A460346FB710B46BB7113467B7133
S1131B80BA79F8793B7C01937B79009313463A68E0
S1131B903968FFF7A1FA00BF0837BD4680BD0000D1
S1131BA080B400AF034BDB6C1B0EDBB21846BD46A2
S1131BB080BC7047B081E00F80B483B000AF786020
S1131BC04FF6FF7318460C37BD4680BC704780B48F
S1131BD083B000AF78607B685B6A18460C37BD46FB
S1131BE080BC704780B483B000AF786039607B6894
S1131BF03A689A6100BF0C37BD4680BC704780B418
S1131C0083B000AF786039607B68DA683B681A4358
S1131C107B68DA6000BF0C37BD4680BC704780B576
S1131C2082B000AF786039607868FFF7C5FF7B68E1
S1131C303A68DA6100BF0837BD4680BD80B582B01E
S1131C4000AF0E4B01221A64FFF7AAFF0346FB7193
S1131C503B1D1846FFF75AFEFB790F2B0AD93B7937
S1131C60022B07D9064B1B6823F05003044A43F0A8
S1131C701003136000BF0837BD4680BD00000C4050
S1131C80C0800C4080B483B000AF00237B6002E0CE
S1131C907B6801337B607B68034A9342F8DD00BFB5
S1131CA00C37BD4680BC70478F5F010080B584B09F
S1131CB000AF03460A46FB711346BB71FB79AB4A7E
S1131CC0A2FB0323DB08DBB2FB72FA79A74BA3FB6D
S1131CD00213D9080B469B000B445B00D31ADBB2FA
S1131CE0BB72BB79A14AA2FB0323DB08DBB27B7284
S1131CF0BA799E4BA3FB0213D9080B469B000B44F5
S1131D005B00D31ADBB23B720023FB73E1E1FB7B84
S1131D1007F11002134413F8083C092B00F2D68192
S1131D2001A252F823F000BF511D0000BD1D0000A8
S1131D30131E0000691E0000BF1E0000151F0000D6
S1131D40751F0000CB1F0000212000007720000039
S1131D50FB7B03F00103DBB2002B2AD1FA7B84491D
S1131D608B5C43F001038B54FA7B81498B5C43F019
S1131D7002038B54FA7B7E498B5C43F004038B543F
S1131D80FA7B7B498B5C43F008038B54FA7B7849DC
S1131D908B5C43F010038B54FA7B75498B5C43F0E6
S1131DA020038B54FA7B72498B5C6FF386138B543C
S1131DB08CE1FB7B6E4A0021D15487E1FA7B6C49AC
S1131DC08B5C6FF300038B54FA7B69498B5C43F0A3
S1131DD002038B54FA7B66498B5C43F004038B54F7
S1131DE0FA7B63498B5C6FF3C3038B54FA7B6049C2
S1131DF08B5C6FF304138B54FA7B5D498B5C6FF33C
S1131E0045138B54FA7B5A498B5C6FF386138B54BE
S1131E105CE1FA7B56498B5C43F001038B54FA7BFB
S1131E2053498B5C43F002038B54FA7B50498B5C1F
S1131E306FF382038B54FA7B4D498B5C43F00803A8
S1131E408B54FA7B4A498B5C43F010038B54FA7B26
S1131E5047498B5C6FF345138B54FA7B44498B5C85
S1131E6043F040038B5431E1FA7B41498B5C43F0EE
S1131E7001038B54FA7B3E498B5C43F002038B5481
S1131E80FA7B3B498B5C43F004038B54FA7B38495F
S1131E908B5C43F008038B54FA7B35498B5C6FF3FE
S1131EA004138B54FA7B32498B5C6FF345138B54C8
S1131EB0FA7B2F498B5C43F040038B5406E1FA7B99
S1131EC02B498B5C6FF300038B54FA7B28498B5CA2
S1131ED043F002038B54FA7B25498B5C43F00403E3
S1131EE08B54FA7B22498B5C6FF3C3038B54FA7BCC
S1131EF01F498B5C6FF304138B54FA7B1C498B5C76
S1131F0043F020038B54FA7B19498B5C43F0400364
S1131F108B54DBE0FA7B16498B5C43F001038B5452
S1131F20FA7B13498B5C6FF341038B54FA7B1049A2
S1131F308B5C43F004038B54FA7B0D498B5C43F0B8
S1131F4008038B54FA7B0A498B5C6FF304138B549C
S1131F50FA7B07498B5C43F020038B54FA7B0449DA
S1131F608B5C43F040038B54B0E000BFCDCCCCCCB1
S1131F70B0010020FA7B5C498B5C43F001038B5475
S1131F80FA7B59498B5C6FF341038B54FA7B5649B6
S1131F908B5C43F004038B54FA7B53498B5C43F012
S1131FA008038B54FA7B50498B5C43F010038B5429
S1131FB0FA7B4D498B5C43F020038B54FA7B4A49EE
S1131FC08B5C43F040038B5480E0FA7B46498B5C86
S1131FD043F001038B54FA7B43498B5C43F00203C7
S1131FE08B54FA7B40498B5C43F004038B54FA7B9B
S1131FF03D498B5C6FF3C3038B54FA7B3A498B5C8A
S11320006FF304138B54FA7B37498B5C6FF34513DE
S11320108B54FA7B34498B5C6FF386138B5455E0F5
S1132020FA7B31498B5C43F001038B54FA7B2E49D4
S11320308B5C43F002038B54FA7B2B498B5C43F09B
S113204004038B54FA7B28498B5C43F008038B54BC
S1132050FA7B25498B5C43F010038B54FA7B2249AD
S11320608B5C43F020038B54FA7B1F498B5C43F059
S113207040038B542AE0FA7B1B498B5C43F0010339
S11320808B54FA7B18498B5C43F002038B54FA7B24
S113209015498B5C43F004038B54FA7B12498B5C27
S11320A043F008038B54FA7B0F498B5C6FF30413E2
S11320B08B54FA7B0C498B5C43F020038B54FA7BE2
S11320C009498B5C43F040038B5400BFFB7B013315
S11320D0FB73FB7B032B7FF61AAE034800F03CFA3C
S11320E000BF1037BD4680BDB001002080B586B06A
S11320F000AFB8813981BA800023FB758EE00023DC
S1132100BB7584E000237B753B7BFA7D9A420DD13D
S11321107B7BBA7D9A4209D1FA7D464911F8123087
S113212043F0010301F8123001237B753B7AFA7DF9
S11321309A421FD17B7ABA7D9A421BD1BB7D002B78
S113214018D0BB7D022B15D8BB7D022B08D1FB7D9B
S1132150384A5B0013445A7842F001025A7007E08F
S1132160FB7D344A5B0013445A7842F010025A70E3
S113217001237B753B79FA7D9A420DD17B79BA7D37
S11321809A4209D1FA7D2B4911F8123043F0080321
S113219001F8123001237B757B7D83F00103DBB2F0
S11321A0002B31D0BB7D032B2ED801A252F823F093
S11321B0C1210000D3210000E5210000F721000027
S11321C0FA7D1C4911F812306FF3C30301F8123081
S11321D01AE0FB7D174A5B0013445A786FF304122C
S11321E05A7011E0FB7D134A5B0013445A786FF375
S11321F000025A7008E0FA7D0E4911F812306FF3AC
S1132200000301F8123000BFBB7D0133BB75BB7DF9
S1132210032B7FF677AFFB7D0133FB75FB7D032B2F
S11322207FF66DAF034800F0EDF900BF1837BD46E7
S113223080BD00BFB401002080B582B000AF124859
S1132240FFF7C5FC7860786800F074FA00F096FA3D
S113225003465A4203F0030302F0030258BF5342F9
S1132260FB700A4B1B78FA789A42E8D0074AFB784D
S11322701370074B1B780133DAB2054B1A7000BF99
S11322800837BD4680BD00BF000001409201002018
S11322909001002080B500AFFFF7CEFF144A154926
S11322A0154B1078527812021043002260F30F028B
S11322B00878497809020843002160F30F0118786F
S11322C05B781B021843002360F30F031846FFF7E3
S11322D00DFF0A4B1A780A4B1B7819461046FFF774
S11322E0E5FC01210748FFF77DFC00BF80BD00BF6E
S11322F0A0010020A4010020AC01002090010020D6
S1132300910100200004014080B500AF044B01227C
S11323101A704FF40070FFF717FC00BF80BD00BFB8
S1132320C201002080B500AFFFF7EEFF00BF80BD03
S113233080B500AFFFF7E8FF00BF80BD80B586B071
S113234002AFFFF77BFC0020FEF77CF8012201219D
S11323500320FEF7D1FD04216048FEF7CDFA0121E8
S11323605F48FEF7FBFB01215E48FEF7F7FB012106
S11323705D48FEF7F3FB0123012209210120FEF74A
S113238015FF3B4600221A605A609A601A730123B3
S11323903B7001237B700A23BB7001215348FFF774
S11323A02EFC43F609515148FFF739FC0C20FFF786
S11323B085FB0B20FFF782FB0120FFF77FFB012148
S11323C00C20FFF797FB03210B20FFF793FB04215D
S11323D00120FFF78FFB3B4619464548FFF7FAFA01
S11323E03B4619464148FFF7F5FA012300930023C1
S11323F0012209210120FFF7B7FB3E4B1A783E4B1F
S11324001A703D4B00225A703C4B00221A703B4B11
S113241000225A70374B1A78394B1A70384B032202
S11324205A70384B00221A7000210020FFF73EFC3E
S1132430324A3149324B107852781202104300224A
S113244060F30F020878497809020843002160F319
S11324500F0118785B781B021843002360F30F0305
S11324601846FFF743FE01210820FEF747F8254BE5
S11324701B78002B2BD0204B5B78032B06D11E4BF3
S113248000225A701F4B00221A7005E01A4B5B7829
S11324900133DAB2184B5A70184A1749184B10789E
S11324A0527812021043002260F30F020878497830
S11324B009020843002160F30F0118785B781B02BE
S11324C01843002360F30F031846FFF70FFE094B70
S11324D01A780B4B1A70FFF7D5FBC8E7408104004C
S11324E0005204000062040000D204000004014011
S11324F00000014092010020A4010020A00100205E
S1132500AC010020C201002080B483B000AF0346B8
S1132510FB71FB79002B03D0054B01221A6602E004
S1132520034B00221A6600BF0C37BD4680BC7047BF
S113253000A0084080B483B000AF786000BF054BB2
S11325405A6E7B681340002BF9D100BF0C37BD468F
S113255080BC704700A0084080B586B000AF7860AA
S11325604FF0FF30FFF7E6FF0120FFF7CDFF002318
S1132570BB753BE00023FB7532E0BA7DF97D204852
S11325801346DB009B1A5B0003440B4407331B78A0
S11325903B61BA7DF97D1A481346DB009B1A5B0048
S11325A003440B441B78FB60BB7D7A6813441B789F
S11325B01A46FB7D42FA03F303F00103002B06D015
S11325C0FB68396901221846FEF72CFF05E0FB6819
S11325D0396900221846FEF725FFFB7D0133FB75A0
S11325E0FB7D062BC9D9BB7D0133BB75BB7D032B9A
S11325F0C0D90020FFF788FF00BF1837BD4680BD53
S11326000C00002080B586B000AF78604FF0FF303A
S1132610FFF790FF0120FFF777FF0023BB753CE035
S11326200023FB7533E0BA7DF97D21481346DB00B6
S11326309B1A9B0003440B440E331B783B61BA7D09
S1132640F97D1B481346DB009B1A9B0003440B4493
S11326501B78FB60BB7D5B007A6813441B881A46B9
S1132660FB7D42FA03F303F00103002B06D0FB6861
S1132670396901221846FEF7D5FE05E0FB68396981
S113268000221846FEF7CEFEFB7D0133FB75FB7D71
S11326900D2BC8D9BB7D0133BB75BB7D062BBFD9C0
S11326A00020FFF731FF00BF1837BD4680BD00BFD3
S11326B04400002008B5074B044613B10021AFF3D2
S11326C00080054B1868836A03B19847204600F0E0
S11326D00BF900BF000000001829000070B50025A8
S11326E00C4E0D4CA41BA410A54209D100F0FEF819
S11326F000250A4E0A4CA41BA410A54205D170BDA6
S113270056F8253098470135EEE756F825309847B6
S11327100135F2E76C0100206C0100206C010020FF
S11327207001002003460244934200D1704703F82D
S1132730011BF9E738B50D4B05461C68A36B7BB943
S1132740182000F04FF80A4A0A4BA063C0E900239E
S1132750094B012283600B2383810023C0E90423F6
S11327600022A36B1D615A6138BD00BF080100201F
S11327700E33CDAB34126DE6ECDE050038B5134BE9
S11327801C68A36B7BB9182000F02CF8104A114B7D
S1132790A063C0E90023104B012283600B238381D3
S11327A00023C0E90423A16B0C480A694B69504318
S11327B00B4C04FB0300A2FB04230344541C43F10D
S11327C00005C1E9044525F0004038BD080100209A
S11327D00E33CDAB34126DE6ECDE05002DF451580A
S11327E02D7F954C024B0146186800F003B800BFDA
S11327F00801002070B5CD1C25F0030508350C2D0B
S113280038BF0C25002D064601DBA94203D90C2351
S11328103360002070BD00F057F8214A1468214647
S113282091B9204C23681BB9304600F03DF8206074
S11328302946304600F038F8431C24D10C23304696
S1132840336000F042F8E4E70B685B1B18D40B2BF1
S11328500FD90B60CC18CD50304600F036F804F197
S11328600B00231D20F00700C31AD3D05A42E250B4
S1132870D0E74B688C4216BF636013600C46EBE7ED
S11328800C464968CCE7C41C24F00304A04205D0DC
S1132890211A304600F008F80130CFD02560DBE77C
S11328A0940100209801002038B50023054C05460A
S11328B00846236000F00AF8431C02D1236803B1E0
S11328C02B6038BDC401002070477047044A054995
S11328D01368002B08BF0B46184410601846704755
S11328E09C010020C8010020FEE700BFF8B500BF2E
S11328F0F8BC08BC9E467047F8B500BFF8BC08BCDD
S11329009E46704701000000030040000C000000D8
S113291000000000000000000C0100200000000086
S10B2920FCD7FF7F0100000059
S1132928006CDC0200800000809FD50007050201CE
S11329380306042323232323232307050201030671
S1132948042424242424242407050201030604253A
S113295825252525252507050201030604262626FF
S11329682626262601010507070304020302040696
S113297805060D0E0E0E0D0D0D0D0E0E0E0E0D0D83
S113298801010507070304020302040605060F10E4
S113299810100F0F0F0F101010100F0F0101050763
S11329A80703040203020406050611121212111188
S11329B81111121212121111010105070703040261
S11329C8030204060506131C1C1C131313131C1CF6
S11329D81C1C131300010507060203010302040665
S11329E804051D1E1E1E1D1D1D1D1E1E1E1E1D1D35
S11329F800010507060203010302040604051F205B
S1132A0820201F1F1F1F202020201F1F0101050732
S1132A1807030402030204060506212222222121B7
S1132A2821212222222221210C0100200000000061
S1132A38000000000000000000000000000000008A
S1132A48000000000000000000000000000000007A
S1132A58000000000000000000000000000000006A
S1132A68000000000000000000000000000000005A
S1132A78000000000000000000000000000000004A
S1132A880000000000000000000000000101000038
S1072A98DD00000059
S90301916A
