:100000000000022091010000BD010000BD010000C0
:10001000BD010000BD010000BD010000BD010000E8
:10002000BD010000BD010000BD010000BD010000D8
:10003000BD010000BC010000BD010000BD010000C9
:10004000BD010000BD010000BD010000BD010000B8
:10005000BD010000BD010000BD010000BD010000A8
:10006000BD010000BD010000BD010000BD01000098
:10007000BD010000BD010000BD010000BD01000088
:10008000BD010000BD010000BD010000BD01000078
:10009000BD010000BD010000BD010000BD01000068
:1000A000BD010000BD010000BD010000BD01000058
:1000B000BD010000BD010000BD010000BD01000048
:1000C000BD010000BD010000BD010000BD01000038
:1000D000BD010000BD010000BD01000010B5054CD0
:1000E000237833B9044B13B10448AFF300800123E4
:1000F000237010BD7800002000000000540A0000AA
:1001000008B5034B1BB103490348AFF3008008BD9A
:10011000000000007C000020540A0000154B002B5A
:1001200008BF134B9D46A3F5803A00218B460F462E
:100130001348144A121A00F09BFB0F4B002B00D0FF
:1001400098470E4B002B00D0984700200021040058
:100150000D000D48002802D00C48AFF3008000F0DD
:1001600063FB2000290000F025FB00F049FB00BFE5
:100170000000080000000220000000000000000055
:1001800078000020A4000020000000000000000013
:10019000064880470649074A074B9A42BEBF51F8B6
:1001A000040B42F8040BF8E7FFF7B8FF0D0300005B
:1001B000600A00000000002078000020FEE700BF79
:1001C00080B400AF034BDB6C1B0EDBB21846BD46A0
:1001D00080BC7047B081E00F80B582B000AF00F006
:1001E00015F87860074B5B6803F00F037A6822FA12
:1001F00003F37B60044A7B6813607B68184608370A
:10020000BD4680BD00800C400800002080B582B053
:1002100000AF334BDB6A03F47053B3F5805F0AD051
:10022000B3F5005F03D0B3F5006F08D00BE02D4BA2
:100230001B687B6047E04FF400437B6043E02A4B40
:100240001B687B603FE0264BDB6803F4E063B3F59B
:10025000007F1BD0B3F5007F05D8002B24D0B3F569
:10026000807F16D02BE0B3F5806F09D0B3F5A06F77
:1002700003D0B3F5407F06D021E01C4B7B6021E02A
:100280001B4B7B601EE01B4B7B601BE01A4B7B60B3
:1002900018E0FFF795FF0346122B02D9174B7B603E
:1002A00010E0174B7B600DE0FFF78AFF0346122B2F
:1002B00002D9144B7B6005E0134B7B6002E0002306
:1002C0007B6000BF00BF064B1B689B0B03F007035E
:1002D00001337A68B2FBF3F318460837BD4680BD98
:1002E00000800C400400002000000020003FAB0113
:1002F000406F4001809FD500C0D8A70040B5640082
:10030000C0CF6A00804F120040420F0080B400AF9F
:10031000034B044A9A6000BFBD4680BC704700BFD3
:1003200000ED00E00000000080B487B000AFF8608E
:10033000B9607A60FB6803F10473DA00BB681344A8
:100340009B007B617B697A681A6000BF1C37BD46E1
:1003500080BC704780B400AF034BDB6C1B0CDBB27E
:100360001846BD4680BC7047B081E00F80B582B0B2
:1003700000AFFFF7EFFF03464A2B04D0792B02D0E2
:10038000482B23D024E0154B1B699BB21B029BB268
:1003900003F47C53FB80114B9B691B091B0103F089
:1003A000F0039AB2FB881343FB800C4BDB691B09FB
:1003B00003F00F039AB2FB881343FB80FB88B3F56D
:1003C000017F01D3064B04E0064B02E0054B00E041
:1003D000002318460837BD4680BD00BFD0FF0FE0A0
:1003E00000366E010048E80180B584B000AF786047
:1003F0000123FB60FFF7BAFF02467B68934204D8F3
:100400000023FB600023BB600BE0FFF7AFFF034658
:100410005B007A689A4202D80123BB6001E00223A4
:10042000BB60FA681E210848FFF77EFF064B5B6839
:1004300023F48072BB681B02034913434B6000BF67
:100440001037BD4680BD00BF00800C4080B483B033
:1004500000AF7860094B5B6D03F00103002B07D1FF
:1004600000BF064B1A6D7B681340002BF9D100E0EA
:1004700000BF0C37BD4680BC704700BF00800C40F9
:1004800080B586B000AF78600B46FB7000233B61FF
:100490007B681B0A03F00F03013B092B44D801A220
:1004A00052F823F0DF040000E5040000CD04000052
:1004B0002905000029050000EB040000F5040000F8
:1004C0002905000029050000FF040000184B7B618E
:1004D000FFF782FE03461846FFF786FF12E0154B32
:1004E0007B610FE0144B7B610CE0144B7B610123BB
:1004F0003B6107E0124B7B6110233B6102E0114B33
:100500007B6100BF7B681B0B03F01F03FB603B6933
:10051000002B02D03869FFF799FFFB781A46F9687B
:100520007869FFF701FF00E000BF1837BD4680BDC6
:1005300040800C4008800C4044800C4058800C40A7
:1005400060800C4078800C4080B485B000AF78604B
:100550001A4B5B69DBB29B00DBB203F03C03FB731D
:10056000164B1B699B09DBB203F00303DAB2FB7B7A
:100570001343FB737B68FA7B9A70104B1B69DBB2E9
:1005800003F03F03DAB27B685A700C4B9B691B097E
:10059000DBB21B01FB73094BDB691B09DBB203F008
:1005A0000F03DAB2FB7B1343FB737B68FA7B1A7091
:1005B00000BF1437BD4680BC704700BFD0FF0FE0BE
:1005C00080B483B000AF78607B680D4A93420BD053
:1005D0007B680C4A934207D07B680B4A934203D056
:1005E0007B680A4A934201D1012300E0002303F013
:1005F0000103DBB218460C37BD4680BC704700BF14
:10060000000001400004014000080140000C0140CE
:1006100080B584B000AF786039607868FFF7D0FFAC
:100620000023FB603B681B7883F00103DBB2002BE7
:1006300002D07B6802225A607B6800225A623B68C3
:100640009B781A063B68DB781B041A433B689B794E
:100650009B021A433B68DB791B0213433A68127A08
:1006600013433A685278002A01D0402200E0002269
:1006700013433A68527A002A01D0802200E0002217
:1006800013433A68927A002A01D0202200E0002227
:1006900013433A68D27A002A01D0102200E00022E7
:1006A00013433A68127B002A01D0082200E000229E
:1006B0001343FB603B681B79002B02D04FF40052C0
:1006C00000E000223B685B79002B02D04FF08053A2
:1006D00000E000231343FA681343FB607B68FA6869
:1006E0001A603B681B78002B02D07B6801225A609D
:1006F00000BF1037BD4680BD80B400AF034BDB6C3C
:100700001B0EDBB21846BD4680BC7047B081E00FBF
:1007100080B483B000AF78607B685B6A18460C37A2
:10072000BD4680BC7047000080B582B000AF0E4B64
:1007300001221A64FFF7E0FF0346FB713B1D1846D8
:10074000FFF702FFFB790F2B0AD93B79022B07D960
:10075000064B1B6823F05003044A43F01003136058
:1007600000BF0837BD4680BD00000C40C0800C4073
:1007700080B584B000AF0346FB710D48FFF7C8FF9A
:10078000F860F86800F07CF800F09EF803465A42E2
:1007900003F0030302F0030258BF5342FB72FA79DD
:1007A000FB7A9A42E9D0FB7A18461037BD4680BDE5
:1007B0000000014080B584B000AF0023FB73FFF759
:1007C000B3FF01210C48FFF75BFE3B4600221A6095
:1007D0005A609A601A7301233B7001237B703B4679
:1007E00019460648FFF714FFFB7B1846FFF7C0FFCA
:1007F0000346FB73F8E700BF00520400000001400D
:1008000008B5074B044613B10021AFF30080054B38
:100810001868836A03B19847204600F00BF900BFBF
:1008200000000000500A000070B500250C4E0D4C71
:10083000A41BA410A54209D100F0FEF800250A4E21
:100840000A4CA41BA410A54205D170BD56F8253052
:1008500098470135EEE756F8253098470135F2E71D
:100860007000002070000020700000207400002044
:1008700003460244934200D1704703F8011BF9E795
:1008800038B50D4B05461C68A36B7BB9182000F0EA
:100890004FF80A4A0A4BA063C0E90023094B012222
:1008A00083600B2383810023C0E904230022A36B10
:1008B0001D615A6138BD00BF0C0000200E33CDAB66
:1008C00034126DE6ECDE050038B5134B1C68A36BE3
:1008D0007BB9182000F02CF8104A114BA063C0E936
:1008E0000023104B012283600B2383810023C0E986
:1008F0000423A16B0C480A694B6950430B4C04FB61
:100900000300A2FB04230344541C43F10005C1E986
:10091000044525F0004038BD0C0000200E33CDAB5F
:1009200034126DE6ECDE05002DF451582D7F954C08
:10093000024B0146186800F003B800BF0C0000200D
:1009400070B5CD1C25F0030508350C2D38BF0C25DE
:10095000002D064601DBA94203D90C233360002099
:1009600070BD00F057F8214A1468214691B9204C17
:1009700023681BB9304600F03DF820602946304618
:1009800000F038F8431C24D10C233046336000F0CB
:1009900042F8E4E70B685B1B18D40B2B0FD90B60F4
:1009A000CC18CD50304600F036F804F10B00231D72
:1009B00020F00700C31AD3D05A42E250D0E74B6868
:1009C0008C4216BF636013600C46EBE70C46496827
:1009D000CCE7C41C24F00304A04205D0211A304601
:1009E00000F008F80130CFD02560DBE7940000204C
:1009F0009800002038B50023054C054608462360C2
:100A000000F00AF8431C02D1236803B12B6038BD03
:100A1000A000002070477047044A05491368002B66
:100A200008BF0B4618441060184670479C00002011
:100A3000A8000020FEE700BFF8B500BFF8BC08BC66
:100A40009E467047F8B500BFF8BC08BC9E4670478C
:080A500010000020000000006E
:080A5800C4F6FF7F010000005D
:100A6000006CDC0200800000809FD5001000002098
:100A70000000000000000000000000000000000076
:100A80000000000000000000000000000000000066
:100A90000000000000000000000000000000000056
:100AA0000000000000000000000000000000000046
:100AB0000000000000000000000000000000000036
:100AC0000000000000000000000000000000000026
:080AD00001010000DD0000003F
:040000030000019167
:00000001FF
