S00F0000486F6D65776F726B2E73333799
S11300000000022091010000BD010000BD010000BC
S1130010BD010000BD010000BD010000BD010000E4
S1130020BD010000BD010000BD010000BD010000D4
S1130030BD010000BC010000BD010000BD010000C5
S1130040BD010000ED390000BD010000BD0100004C
S1130050BD010000BD010000BD010000BD010000A4
S1130060BD010000BD010000BD010000F939000020
S1130070A9390000BD010000BD010000BD01000060
S1130080BD01000029070000BD010000BD01000002
S1130090BD010000BD010000BD010000BD01000064
S11300A0BD010000BD010000BD010000BD01000054
S11300B0BD010000BD010000BD010000BD01000044
S11300C0BD010000BD010000BD010000BD01000034
S11300D0BD010000BD010000BD01000010B5054CCC
S11300E0237833B9044B13B10448AFF300800123E0
S11300F0237010BDB801002000000000644400001B
S113010008B5034B1BB103490348AFF3008008BD96
S113011000000000BC01002064440000154B002BCB
S113012008BF134B9D46A3F5803A00218B460F462A
S11301301348144A121A03F051FE0F4B002B00D03F
S113014098470E4B002B00D0984700200021040054
S11301500D000D48002802D00C48AFF3008003F0D6
S113016019FE2000290003F04DFC03F0FFFD00BF41
S11301700000080000000220000000000000000051
S1130180B801002060020020000000000000000010
S1130190064880470649074A074B9A42BEBF51F8B2
S11301A0040B42F8040BF8E7FFF7B8FF350300002F
S11301B07044000000000020B8010020FEE700BFEA
S11301C080B400AF034BDB6C1B0EDBB21846BD469C
S11301D080BC7047B081E00F80B582B000AF00F002
S11301E01FF87860074B5B6803F00F037A6822FA04
S11301F003F37B60044A7B6813607B681846083706
S1130200BD4680BD00800C400800002080B400AFD3
S1130210024B1846BD4680BC704700BF006CDC0230
S113022080B582B000AF334BDB6A03F47053B3F58F
S1130230805F0AD0B3F5005F03D0B3F5006F08D038
S11302400BE02D4B1B687B6047E04FF400437B6061
S113025043E02A4B1B687B603FE0264BDB6803F4DA
S1130260E063B3F5007F1BD0B3F5007F05D8002B06
S113027024D0B3F5807F16D02BE0B3F5806F09D07E
S1130280B3F5A06F03D0B3F5407F06D021E01C4B3B
S11302907B6021E01B4B7B601EE01B4B7B601BE003
S11302A01A4B7B6018E0FFF78BFF0346122B02D931
S11302B0174B7B6010E0174B7B600DE0FFF780FF6E
S11302C00346122B02D9144B7B6005E0134B7B6071
S11302D002E000237B6000BF00BF064B1B689B0B42
S11302E003F0070301337A68B2FBF3F318460837C7
S11302F0BD4680BD00800C400400002000000020AA
S1130300003FAB01406F4001809FD500C0D8A700DB
S113031040B56400C0CF6A00804F120040420F0015
S113032080B400AF024B1B681846BD4680BC7047C2
S11303300000002080B400AF034B044A9A6000BF61
S1130340BD4680BC704700BF00ED00E00000000027
S113035080B400AF4FF400431846BD4680BC7047DC
S113036080B400AF4FF47A731846BD4680BC704722
S113037080B400AF024B1B681846BD4680BC704772
S11303800400002080B483B000AF0346FB7197F9EA
S11303900730002B0BDBFB7903F01F02064997F9AA
S11303A007305B09012000FA02F241F8232000BF64
S11303B00C37BD4680BC704700E100E080B500AF5B
S11303C0FFF70AFF00BF80BD80B400AF024B1B6A79
S11303D01846BD4680BC704700C0084080B400AFDA
S11303E0024B9B6A1846BD4680BC704700C008405B
S11303F080B483B000AF7860054A7B6803F00F03D4
S1130400A03352F8233018460C37BD4680BC7047E1
S113041000C0084080B483B000AF7860034A7B68B2
S1130420536400BF0C37BD4680BC704700C0084011
S113043080B483B000AF7860054BDA6C04497B6804
S11304401343CB6400BF0C37BD4680BC704700BF6C
S113045000C0084080B483B000AF7860054BDA6C0C
S11304607B68DB4303491340CB6400BF0C37BD46B4
S113047080BC704700C0084080B483B000AF064B16
S1130480DB6C7B60044B1A6C7B68134018460C379A
S1130490BD4680BC704700BF00C0084080B500AFB7
S11304A0FFF78CFF0521112001F038FB03211248CE
S11304B001F034FB0121114801F030FB0121104807
S11304C001F01AF901210F4801F016F901210E4833
S11304D001F012F901210D4801F00EF901210C4837
S11304E001F00AF901210B4801F006F9012109483C
S11304F000F0D0FF00BF80BD02001E0003002000FA
S11305004081040000D204000092040000A2040010
S1130510D0433E0080062E0080B500AF00210220AB
S113052001F072FD002300220821022001F00EFEDA
S1130530002300220921022001F008FE00230022EA
S11305400A21022001F002FE002300220B210220D6
S113055001F0FCFD00BF80BD80B500AF0023002288
S11305600021094800F0ECFB002300220021074889
S113057000F0E6FB0649044800F09EFB04490348EA
S113058000F09AFB00BF80BD001000400014004042
S1130590F83F000080B584B000AF0346FB715B4BAD
S11305A01B78002B03D00121594802F095F9FB79FF
S11305B0002B37D002F056FC00BFFFF705FF0346BF
S11305C003F01003002BF8D102F066FC0421002094
S11305D002F036FA0021002002F0CAFA4D4802F077
S11305E0F7FA4D4B1B881A463721082002F0D2FB3C
S11305F0494B5B881A463721092002F0CBFB464B56
S11306009B881A4637210A2002F0C4FB424BDB8840
S11306101A4637210B2002F0BDFB4FF48030FFF760
S113062019FF1EE002F01EFC00BFFFF7CDFE0346DB
S113063003F01003002BF8D14FF48030FFF7EAFEEB
S113064002F02AFC4021002002F0FAF903210020E4
S113065002F08EFA314802F0BBFA4FF48030FFF713
S1130660E7FE1120FFF78EFE02F0E2FB274B1B781A
S1130670002B47D0254B00221A7000BF284B1B6A61
S113068003F00203002BF9D00023FB730023BB7398
S113069019E0BB7B234AD35C002B11D0FB7B032BDB
S11306A00BD8BB7B1846FFF7A3FE03469AB2FB7B2D
S11306B0013A91B2184A22F81310FB7B0133FB7301
S11306C0BB7B0133BB73BB7B0F2BE2D9124B1B8863
S11306D01A463721082002F05DFB0F4B5B881A464F
S11306E03721092002F056FB0B4B9B881A46372111
S11306F00A2002F04FFB084BDB881A4637210B20F7
S113070002F048FB00BF1037BD4680BD4C000020FE
S11307100C4000004C400000200200204C4200002D
S113072000C00840BC3F000080B582B000AFFFF7B6
S1130730A3FE034603F48033002B44D04FF48030EF
S1130740FFF768FE2B4B00221A7030E0294B1B7810
S1130750DBB21A46284B9B5C83F00103DBB2002B0F
S11307601DD1FFF73BFE7860224B1B78DBB21946A4
S1130770224A7B6842F821301E4B1B78DBB21A46B2
S11307801F4B53F822307A689A4209D9194B1B78C7
S1130790DBB219461A4A7B6842F8213000E000BFF8
S11307A0144B1B78DBB20133DAB2124B1A70114BC3
S11307B01B78DBB20F2BC9D9124B1B68002B02D05C
S11307C0104B1B689847FFF757FE034603F470630A
S11307D0002B0AD04FF47060FFF71CFE0A4B1B6815
S11307E0002B02D0084B1B68984700BF0837BD4652
S11307F080BD00BF1C020020BC3F0000D4010020CB
S11308000C0000201402002018020020B0B491B0A3
S113081000AF4FF0FF33BB63EC237B634F4B07F117
S113082018041D460FCD0FC495E8030084E80300A7
S11308304B4B3C1D1D460FCD0FC42B682360012379
S1130840FB6344E0FB6B9B0007F14002134453F845
S11308503C3C013B434A52F823301A02FB6B9B0099
S113086007F140010B4443F8282CFB6B9B0007F174
S11308704002134453F83C3C013B3B4A52F82320CA
S1130880FB6B9B0007F140010B4453F8283CB3FB7E
S1130890F2F2FB6B9B0007F140010B4443F8282C58
S11308A0FB6B9B0007F14002134453F8283C7A6B1E
S11308B09A4209D9FB6B9B0007F14002134453F899
S11308C0283C7B63FB6BBB63FB6B0133FB63FB6B00
S11308D0042BB7DDBB6BB3F1FF3F02D14FF0FF3305
S11308E036E0BB6B013B1B013B633A6BBB6B013BCB
S11308F09B0007F140010B4453F8283CC3F5807377
S1130900D900BB6B9B0007F14000034453F8283C1B
S1130910C3F58073B1FBF3F3D31A3B63BB6B0133B1
S11309209B0007F14002134453F8283CC3F580733D
S1130930DA00BB6B9B0007F140010B4453F8283CE1
S1130940C3F58073B2FBF3F23B6B13443B633B6B25
S113095018464437BD46B0BC704700BFCC3F0000CA
S1130960E43F0000D40100200C00002080B584B0D6
S113097000AF0346FB7101F099FAF860FFF78EFDB2
S1130980FFF7CAFDFFF7E8FDFB791846FFF702FE03
S1130990F86801F09AFA00BF1037BD4680BD000028
S11309A080B483B000AF786000BF054B5A6E7B689B
S11309B01340002BF9D100BF0C37BD4680BC7047F3
S11309C000A0084080B483B000AF7860054B9A6AF9
S11309D07B68DB43034913408B6200BF0C37BD4681
S11309E080BC704700A0084080B500AF00222849B1
S11309F0002001F0CBFD00222549012001F0C6FDB5
S1130A0000222349022001F0C1FD002220490320D5
S1130A1001F0BCFD00221E49042001F0B7FD0022B4
S1130A201B49052001F0B2FD00221949062001F0FE
S1130A30ADFD00221649072001F0A8FD0022FF2188
S1130A40002001F061FE0022FF21012001F05CFE84
S1130A500022FF21022001F057FE0022FF21032083
S1130A6001F052FE0022FF21042001F04DFE00227D
S1130A70FF21052001F048FE0022FF21062001F09D
S1130A8043FE0022FF21072001F03EFE00BF80BD8F
S1130A9000F00FF080B582B000AF0346FB71012176
S1130AA0244800F029FE0321234801F037F84021AF
S1130AB0224800F0EFFC012001F07CF901212048DC
S1130AC000F01AFE4FF0FF30FFF77CFF1D4801F0E5
S1130AD0FBFB0121082001F055FC0121102001F04D
S1130AE051FC0121802001F04DFC01214FF4807064
S1130AF001F048FC01214FF4007001F043FCFB7944
S1130B00002B0DD04FF4402001F0BCFE4FF4803098
S1130B1001F016FC0C4BDB6F0B4A43F00803D36760
S1130B20FFF762FF4FF0FF30FFF73AFF00BF0837CF
S1130B30BD4680BDD0433E0002001E0080002A0056
S1130B4000362C004C44000000800C4080B584B07A
S1130B5000AF03463960FB710023FB600023BB60D8
S1130B60FB790E2B6BD801A252F823F0A90B0000DD
S1130B70B30B0000BD0B0000C70B0000D10B00003D
S1130B80DB0B0000E50B0000EF0B0000F90B00008D
S1130B90030C00000D0C0000170C0000210C0000D9
S1130BA02B0C0000350C00000123FB600C23BB6000
S1130BB046E00023FB602023BB6041E00323FB608D
S1130BC02723BB603CE00223FB600C23BB6037E0BF
S1130BD00023FB601C23BB6032E00323FB600C2377
S1130BE0BB602DE00423FB600C23BB6028E00023E2
S1130BF0FB601E23BB6023E00523FB602723BB604F
S1130C001EE00023FB602223BB6019E00023FB608D
S1130C102323BB6014E00723FB600C23BB600FE0BD
S1130C200523FB600C23BB600AE00623FB600C2356
S1130C30BB6005E00723FB601D23BB6000E000BF31
S1130C403B68002B05D00122B968F86801F0BAFBB3
S1130C5004E00022B968F86801F0B4FB00BF103763
S1130C60BD4680BD80B487B000AFF860B9607A60DB
S1130C70FB6803F10473DA00BB6813449B007B61D7
S1130C807B697A681A6000BF1C37BD4680BC704718
S1130C9080B485B000AFF860B9607A60FB681A6808
S1130CA0BB68DB431A407B681A43FB681A6000BFC9
S1130CB01437BD4680BC704780B582B000AF786001
S1130CC039607B681C4A934202D07B681B4A93427A
S1130CD000BF3B681B78DA073B685B789B071343CC
S1130CE01A463B685B681B0613433A68127A120281
S1130CF013433A68527A12011A437B681A603B68BC
S1130D009B7A1B071A463B68DB7A1B041A433B6831
S1130D10DB681B02134343F0807343F0B0037A682B
S1130D20536078683B681B7C1A460021FFF79AFFE2
S1130D3000BF0837BD4680BD0010004000140040CD
S1130D4080B584B000AFF860B96011461A460B460E
S1130D50FB711346BB71FB680B4A934202D0FB68DC
S1130D600A4A934200BFF868BB79DB001A4608219F
S1130D70FFF78EFFBB681A02FB791A43FB68DA613E
S1130D8000BF1037BD4680BD001000400014004075
S1130D9080B487B000AFF860B9607A60FB6803F193
S1130DA00473DA00BB6813449B007B617B697A6837
S1130DB01A6000BF1C37BD4680BC704780B485B044
S1130DC000AF786039607B6803F10473DA003B6834
S1130DD013449B00FB60FB681B6818461437BD4630
S1130DE080BC704780B483B000AF786001227B6818
S1130DF002FA03F318460C37BD4680BC704780B432
S1130E0085B000AF78607B68002B03D07B68B3F5B6
S1130E10004F00BF7B68B3FA83F3DBB2C3F11F0357
S1130E20FB60FB6818461437BD4680BC7047000061
S1130E3080B400AF034BDB6C1B0EDBB21846BD461F
S1130E4080BC7047B081E00F80B400AF034BDB6C13
S1130E501B0CDBB21846BD4680BC7047B081E00F66
S1130E6080B582B000AFFFF7EFFF03464A2B04D0F2
S1130E70792B02D0482B23D024E0154B1B699BB25D
S1130E801B029BB203F47C53FB80114B9B691B092F
S1130E901B0103F0F0039AB2FB881343FB800C4B55
S1130EA0DB691B0903F00F039AB2FB881343FB8031
S1130EB0FB88B3F5017F01D3064B04E0064B02E047
S1130EC0054B00E0002318460837BD4680BD00BF2F
S1130ED0D0FF0FE000366E010048E80180B584B011
S1130EE000AF78600123FB60FFF7BAFF02467B681E
S1130EF0934204D80023FB600023BB600BE0FFF7A0
S1130F00AFFF03465B007A689A4202D80123BB60B4
S1130F1001E00223BB60FA681E210848FFF738FF8E
S1130F20064B5B6823F48072BB681B0203491343BE
S1130F304B6000BF1037BD4680BD00BF00800C4031
S1130F4080B582B000AF1E210448FFF737FF7860F8
S1130F507B6818460837BD4680BD00BF00800C4042
S1130F6080B582B000AF214B5B6903F4E063B3F555
S1130F70007F1CD0B3F5007F05D8002B25D0B3F536
S1130F80807F1FD02AE0B3F5C06F24D0B3F5E06FA3
S1130F901ED0B3F5407F21D1FFF74AFF0346122B41
S1130FA002D9134B7B601CE0124B7B6019E0FFF706
S1130FB03FFF0346122B02D90F4B7B6011E00F4B0E
S1130FC07B600EE00E4B7B600BE00E4B7B6008E019
S1130FD00D4B7B6005E00D4B7B6002E000237B60E2
S1130FE000BF7B6818460837BD4680BD00800C40B2
S1130FF0804F120040420F0040B56400C0CF6A0029
S1131000C0D8A700809FD500406F4001003FAB01CE
S113101080B582B000AF0D4800F0D2FC0346FB70EF
S1131020FB78072B05D0092B07D1FFF7F9F8786077
S113103006E0FFF795FF786002E000237B6000BFC5
S11310407B6818460837BD4680BD00BF06000E0009
S113105080B485B000AF78603960204B5B6803F0E2
S11310600703FB60FB68012B01D9042B02D1002389
S1131070FB7202E00123FB7200BF7B68184A9342B3
S113108007D9FB7A002B01D0052300E00423FB6081
S113109016E07B68124A93420BD87B68114A93424C
S11310A007D9FB7A002B01D0032300E00123FB6066
S11310B006E0FB7A002B01D0022300E00023FB6052
S11310C0064B5B6823F007020449FB6813434B603B
S11310D000BF1437BD4680BC704700BF00000C4001
S11310E00048E8010024F40080B582B000AF0E4B44
S11310F0DB6B002B14BF01230023FB710A4B41F669
S11311007132DA63FFF782F8034600211846FFF7CD
S11311109FFFFB79002B02D0034B0022DA6300BF50
S11311200837BD4680BD00BF00000C4080B584B0C8
S113113000AF786039600C4BDB6B002B14BF0123CC
S11311400023FB73084B41F67132DA63396878681F
S1131150FFF77EFFFB7B002B02D0034B0022DA63F8
S113116000BF1037BD4680BD00000C4090B585B06F
S113117000AF78600023BB607B68344A934203D09D
S1131180334A934200D000E000BF786800F018FCB6
S11311900346FB607B682D4A934203D02C4A93425A
S11311A006D00CE02B4B9B6A03F00303FB6006E0C4
S11311B0284B9B6A9B0803F00303FB6000BFFB689A
S11311C0032B39D801A252F823F000BF0312000008
S11311D0DD110000E5110000ED110000FFF7B8F883
S11311E0B8602DE0FFF7C4F8B86029E0FEF7F4FF1B
S11311F00446FFF7A5FE0346013324FA03F3BB605C
S11312001EE00023BB607B68104A934203D07B68D6
S11312100F4A934213D10F4B9A6A7B680B498B4256
S113122001D1102300E0142322FA03F3002B06D08B
S1131230FFF796F8B86002E00023BB6000E000BF4F
S1131240BB6818461437BD4690BD00BF02001E009F
S11312500300200000800C4080B483B000AF7860AD
S1131260094B5B6D03F00103002B07D100BF064B54
S11312701A6D7B681340002BF9D100E000BF0C37D6
S1131280BD4680BC704700BF00800C4080B582B072
S113129000AF104800F094FB0346FB70FB78032B6F
S11312A007D0092B09D0022B0BD1FFF761F8786026
S11312B00AE0FFF74DF8786006E0FEF7B1FF7860CA
S11312C002E000237B6000BF7B6818460837BD46F8
S11312D080BD00BF0723260080B400AF00BFBD4619
S11312E080BC704780B400AF00BFBD4680BC70476F
S11312F090B585B000AF78607B681B0903F00F03DD
S1131300BB60BB68013B0C2B00F2AE8001A252F81B
S113131023F000BF491300006914000069140000A1
S11313205913000069140000691400006D130000D3
S11313309B130000271400006914000069140000C6
S113134069140000811300004B4B1B689B0B03F0D6
S113135007030133FB608AE0474B9B6803F00F03EC
S1131360FB60F868FFF73EFDF86080E0424B5B6885
S113137003F00F03FB60F868FFF734FDF86076E0D4
S11313803D4B5B681B0A03F00103FB60FB68013300
S11313901846FFF727FDF86069E07B68374A9342F7
S11313A018D0364A934203D8354A934207D036E0E0
S11313B0344A934219D0344A934226D02FE02E4B1C
S11313C09B6E1B0903F00F03FB60F868FFF70AFD2F
S11313D0F86027E0284B9B6E1B0A03F00F03FB60A9
S11313E0F868FFF7FFFCF8601CE0234B9B6E1B0BB7
S11313F003F003041020FFF702FD03462344FB60BF
S1131400F868FFF7EFFCF8600CE01B4B9B6E03F0F1
S11314100303FB60F868FFF7E5FCF86002E00123D2
S1131420FB6000BF23E07B68184A934203D0184A4C
S113143093420AD014E0104B1B6F03F00303FB60CC
S1131440F868FFF7CFFCF8600DE00B4B1B6F1B092E
S113145003F00303FB60F868FFF7C4FCF86002E0E4
S11314600123FB6000BF02E00123FB6000BFFB68B7
S113147018461437BD4690BD00800C4080261600E7
S11314808016120080002A0080062E0090071A00A1
S113149090171C0090B585B000AF786039607B6808
S11314A01B0903F00F03FB60FB68013B0C2B00F2EC
S11314B00F8101A252F823F0ED140000D1160000B0
S11314C0D116000021150000D1160000D11600002D
S11314D069150000BB1500007D160000D116000040
S11314E0D1160000D1160000491500003B68002BFE
S11314F002D03B68082B00BFFFF7F6FD774B1B6853
S113150023F4E0323B68013B9B03744913430B60B3
S1131510FEF762FEB8600021B868FFF707FED8E066
S11315203B68002B03D03B68B3F5007F00BF3868ED
S1131530FFF765FC3860694B9B6823F00F0267492D
S11315403B6813438B60C4E03868FFF758FC0346DC
S1131550013B3B60614B5B6823F480723B681B0278
S11315605E4913434B60B4E03B68002B03D03B68F7
S1131570B3F5007F00BFFFF7B7FDFEF72DFE02466F
S11315803B68B2FBF3F31846FFF7A8FC3868FFF793
S113159036FC3860514B5B6823F00F024F493B68BF
S11315A013434B60FEF718FEB8600021B868FFF7DC
S11315B0BDFDB868FFF792FC8BE07B68484A934214
S11315C01ED0474A934203D8464A934207D054E078
S11315D0454A934225D0454A93423ED04DE00420EB
S11315E0FFF73AFE3868FFF70AFC38603B4B9B6E06
S11315F023F0F0023B681B01384913438B663CE03F
S11316000420FFF729FE3868FFF7F9FB3860334BF5
S11316109B6E23F470623B681B02304913438B6654
S11316202BE03B680F2B02D93B68802B00BF0420C2
S1131630FFF712FE3868FFF7E2FB3860274B9B6E1A
S113164023F440541020FFF7DAFB02463B689B1A50
S11316501B03224A234393660FE00420FFF7FCFD9B
S11316603868FFF7CCFB38601C4B9B6E23F00302F9
S11316701A493B6813438B6600BF2AE07B681C4A07
S1131680934203D01B4A934210D020E04020FFF73E
S1131690E3FD3868FFF7B3FB3860104B1B6F23F092
S11316A003020E493B6813430B6710E04020FFF729
S11316B0D3FD3868FFF7A3FB3860084B1B6F23F09A
S11316C030023B681B01054913430B6700BF00E070
S11316D000BF00BF1437BD4690BD00BF00800C4062
S11316E0802616008016120080002A0080062E0034
S11316F090071A0090171C0080B586B000AF786080
S11317000B46FB7000233B617B681B0A03F00F034D
S1131710013B092B44D801A252F823F057170000CB
S11317205D17000045170000A1170000A117000075
S1131730631700006D170000A1170000A117000037
S113174077170000184B7B61FEF746FD03461846E9
S1131750FFF7C4FB12E0154B7B610FE0144B7B6178
S11317600CE0144B7B6101233B6107E0124B7B616E
S113177010233B6102E0114B7B6100BF7B681B0BB4
S113178003F01F03FB603B69002B02D03869FFF7AD
S113179063FDFB781A46F9687869FFF7F9FA00E007
S11317A000BF1837BD4680BD40800C4008800C4007
S11317B044800C4058800C4060800C4078800C4081
S11317C090B585B000AF78607B6803F47813B3F507
S11317D0D01F00F0B480B3F5D01F1AD8B3F5602F32
S11317E000F0C880B3F5602F08D8B3F5003F45D0AA
S11317F0B3F5802F36D0002B30D0D2E0B3F5901F54
S113180045D0B3F5B01F50D0B3F5801F00F0B680BB
S1131810C7E0B3F5181F00F0B580B3F5181F0BD857
S1131820B3F5F01F2ED0B3F5001F00F08380B3F59D
S1131830E01F00F09180B4E0B3F5301F56D0B3F54B
S1131840301F03D8B3F5281F3DD0AAE0B3F5381FE5
S113185063D0B3F5781F00F09980A2E0FEF7E0FCB6
S1131860F860A1E0FEF7DCFCF860524B9B6803F0E3
S11318700F03FA6822FA03F3FB6095E0FEF7ACFC71
S1131880F86091E04C48FFF771FCF8608CE04A483E
S1131890FFF76CFCF860474B9B6E1B0903F00F03CA
S11318A0FA6822FA03F3FB607EE04348FFF75EFC2C
S11318B0F860404B9B6E1B0A03F00F03FA6822FA90
S11318C003F3FB6070E03C48FFF750FCF860394BD1
S11318D09B6E1B0B03F003041020FFF790FA0346E2
S11318E02344FA6822FA03F3FB605DE03248FFF711
S11318F03DFCF8602F4B9B6E1B0B03F00303FA684F
S113190022FA03F3FB602B4BDB6F03F00703013375
S1131910FA68B2FBF3F3FB6046E02748FFF726FCC6
S1131920F860244B9B6E03F00303FA6822FA03F376
S1131930FB6039E02148FFF719FCF86034E01F48E8
S1131940FFF714FCF8601B4B1B6F03F00303FA68EA
S113195022FA03F3FB6027E01848FFF707FCF8605E
S1131960144B1B6F1B0903F00303FA6822FA03F3F9
S1131970FB6019E0FFF74CFBF86015E0FFF7F0FAA5
S1131980F86011E0FFF782FCF8600DE0FEF724FC3C
S113199004467868FFF7ACFC0346B4FBF3F3FB6042
S11319A002E00023FB6000BFFB6818461437BD4605
S11319B090BD00BF00800C4002001E000300200008
S11319C080B485B000AF78600123FB737B6803F0BB
S11319D00F03BB60BB68013B062B00F2938001A29E
S11319E052F823F0011A0000371A0000731A00009D
S11319F0051B0000051B0000AF1A0000D11A0000EF
S1131A00454BDB6A03F47053B3F5805F09D0B3F53B
S1131A10005F03D0B3F5006F06D008E00223FB7328
S1131A2008E00323FB7305E00423FB7302E00523B2
S1131A30FB7300BF69E0384B9B6A03F00303022B7E
S1131A4006D0032B07D0012B08D10323FB730FE02F
S1131A500223FB730CE00623FB7309E02E4B9B6A05
S1131A6003F48033002B02D00A23FB7300E000BF91
S1131A704BE0294B9B6A03F00C03082B06D00C2B7C
S1131A8007D0042B08D10323FB730FE00223FB735D
S1131A900CE00623FB7309E01F4B9B6A03F48013DD
S1131AA0002B02D00A23FB7300E000BF2DE01A4B89
S1131AB01B6803F08053002B03D0B3F1805F03D085
S1131AC023E00723FB7302E00923FB7300BF1CE040
S1131AD0114BDB6A03F46033B3F5803F08D0B3F5F0
S1131AE0003F08D0B3F5004F08D10923FB7308E089
S1131AF00223FB7305E00323FB7302E00123FB7362
S1131B0000BF02E00023FB7300BFFB7B18461437C1
S1131B10BD4680BC704700BF00800C4080B588B0D3
S1131B2000AF78600B46FB700323FB610323FB7655
S1131B3000233B617B6803F00F03FB60FB68013B00
S1131B40062B00F2288101A252F823F0691B000041
S1131B503F1C00003F1C0000971D0000971D000063
S1131B60051D00002F1D0000FB78023B082B00F22E
S1131B70148101A252F823F09D1B0000A71B000052
S1131B80B11B0000F31B00009B1D00009B1D000007
S1131B909B1D00009B1D00009B1D00000423FB6196
S1131BA00023FB7631E00323FB610123FB762CE069
S1131BB00223FB610223FB76FFF752F9034601334C
S1131BC01846FFF78BF9FEF7ABFB0246764B9A42B9
S1131BD006D9764B1B68754A43F06003136014E022
S1131BE0724B1B6823F06003704A43F020031360B8
S1131BF00BE00123FB610323FB76FFF731F9034676
S1131C0001331846FFF76AF900BFFB7E0122012168
S1131C10184600F0EDF8FFF767FAFFF75DFB634A3B
S1131C20FB695362FEF7D8FAB860B868FFF756F953
S1131C300021B868FFF77AFAFFF754FBB0E0FB78AD
S1131C40013B092B00F2AB8001A252F823F000BF44
S1131C50791C00007F1C00008F1C00009F1D0000E9
S1131C609F1D00009F1C00009F1D00009F1D000081
S1131C709F1D0000BB1C000000237B6122E00122A9
S1131C800121002000F0B4F802237B611AE0012254
S1131C900121012000F0ACF801237B6112E0FEF782
S1131CA09BFAB860B868FFF719F90122042140488B
S1131CB0FFF76EF803237B6104E000237B610123BB
S1131CC03B6100BFFB68022B0DD1384B9B6A23F4A8
S1131CD0803323F003037A691A433B691B043349B5
S1131CE013438B625CE0314B9B6A23F4801323F033
S1131CF00C037A6992001A433B691B052B49134371
S1131D008B624DE0FB78072B02D0092B07D047E00C
S1131D10264B1B68254A23F08053136006E0234BAF
S1131D201B68224A43F08053136000BF38E0FB78FD
S1131D30032B14D0092B22D0022B00D030E0012237
S1131D400121002000F054F8184B40225A6200BFD1
S1131D50164BDB6A03F48033002BF9D01AE001221E
S1131D600121012000F044F8104B60225A6200BFA8
S1131D700E4BDB6A03F40033002BF9D00AE00B4B63
S1131D8020225A6200BF094BDB6A03F40043002B94
S1131D90F9D000BF04E000BF02E000BF00E000BFD4
S1131DA02037BD4680BD00BF0048E80100800C40DC
S1131DB040800C4080B483B000AF78600B4B9B6DC7
S1131DC003F00803002B0CD17B6803F007037B604E
S1131DD0064BDB6F23F0070204497B681343CB6790
S1131DE000E000BF0C37BD4680BC704700800C404B
S1131DF080B586B000AF0346FB710B46BB7113463A
S1131E007B71FB79042B48D801A252F823F000BF60
S1131E105D1E00004F1E0000331E0000251E000042
S1131E20411E000001233B610223FB6001237B610F
S1131E301DE004233B610823FB6003237B6116E060
S1131E4010233B612023FB6005237B610FE04023CB
S1131E503B618023FB6007237B6108E04FF48073C0
S1131E603B614FF40073FB6009237B6100BFBB79C6
S1131E70002B0ED00B4A3B6913627B79002B0DD0EB
S1131E8000BF79690848FEF799FF0346002BF8D094
S1131E9004E0044AFB68136200E000BF1837BD4643
S1131EA080BD00BF00800C402C800C4080B483B007
S1131EB000AFEFF310833B603B687B6072B67B68D6
S1131EC018460C37BD4680BC704780B483B000AF61
S1131ED078607B68002B00D162B600BF0C37BD462A
S1131EE080BC704780B487B000AFF860B9607A6096
S1131EF0FB6803F10473DA00BB6813449B007B6145
S1131F007B697A681A6000BF1C37BD4680BC704785
S1131F1080B485B000AFF860B9607A60FB681A6875
S1131F20BB68DB431A407B681A43FB681A6000BF36
S1131F301437BD4680BC704780B483B000AF78606E
S1131F40044A7B68C2F81C3100BF0C37BD4680BC14
S1131F50704700BF0060004080B483B000AF034608
S1131F603960FB71FB79002B0DD0FB79012B0AD072
S1131F70FB79022B07D0FB79032B04D0FB79042BCC
S1131F8001D0FB79052B01223B6802FA03F30749D0
S1131F90FA7918461346DB0013449B000B441433B0
S1131FA0186000BF0C37BD4680BC7047006000401D
S1131FB080B483B000AF03463960FB71FB79002B1A
S1131FC00DD0FB79012B0AD0FB79022B07D0FB79CA
S1131FD0032B04D0FB79042B01D0FB79052B0122C0
S1131FE03B6802FA03F30749FA7918461346DB0003
S1131FF013449B000B441033186000BF0C37BD46DC
S113200080BC70470060004080B483B000AF0346DA
S11320100A46FB711346BB71FB79002B0ED0FB798A
S1132020012B0BD0FB79022B08D0FB79032B05D0B5
S1132030FB79042B02D0FB79052B02D1BB79032B4E
S113204000BF0C49FA791346DB0013449B000B4490
S11320501B6823F00301BB790648FA791943134638
S1132060DB0013449B000344196000BF0C37BD46DA
S113207080BC70470060004080B586B000AFB96096
S11320807A601A460346FB731346BB7300237B61D5
S1132090FB7B002B0DD0FB7B012B0AD0FB7B022B9F
S11320A007D0FB7B032B04D0FB7B042B01D0FB7BF1
S11320B0052B7B68072B0ED87B689B00072202FA4E
S11320C003F1FA7B7B689B0002FA03F31A461A4871
S11320D0FFF71EFF10E07B68083B7B617B699B0078
S11320E0072202FA03F1FA7B7B699B0002FA03F3ED
S11320F01A461248FFF70CFFBB7B1A467968104852
S1132100FFF7F0FE97F820301A4679680D48FFF77C
S1132110E9FE01227B6802FA03F31846FFF70CFF7D
S113212097F824301A4679680748FFF7DBFE00BFAA
S11321301837BD4680BD00BF006100400461004007
S1132140086100400C6100401061004080B584B01B
S113215000AFB9607B600346FB731346BB73FB7B24
S1132160002B0DD0FB7B012B0AD0FB7B022B07D06D
S1132170FB7B032B04D0FB7B042B01D0FB7B052BC7
S1132180BB7B002B0DD07B68002B05D0FB7BB96893
S11321901846FFF70DFF04E0FB7BB9681846FFF70C
S11321A0DBFEBB68072B20D82D49FA7B1346DB00E6
S11321B013449B000B4404331A68BB689B000F2133
S11321C001FA03F3DB431340B97BBA68920001FAC6
S11321D002F211462248FA7B19431346DB001344EA
S11321E09B0003440433196025E01D49FA7B134620
S11321F0DB0013449B000B4408331A68BB6803F1EB
S11322008043083B9B000F2101FA03F3DB4302EAFE
S11322100301BA7BBB6803F18043083B9B0002FACD
S113222003F30F48FA7B19431346DB0013449B0066
S1132230034408331960BB7B002B0DD17B68002B52
S113224005D0FB7BB9681846FFF7B2FE04E0FB7BC0
S1132250B9681846FFF780FE00BF1037BD4680BD41
S11322600060004080B483B000AF0346FB71FB798B
S1132270002B06D0084B1B68074A43F00103136088
S113228005E0054B1B68044A23F00103136000BFFB
S11322900C37BD4680BC704700A0084080B487B0AE
S11322A000AFF860B9607A60FB6803F10473DA0088
S11322B0BB6813449B007B617B697A681A6000BF2A
S11322C01C37BD4680BC704780B584B000AF7860D1
S11322D01A4B5B68FB600020FFF7C4FFFB6823F424
S11322E0830323F01F03FB607B685B68FA68134376
S11322F0FB607B681B7A1A46FB681343FB607B68B0
S11323005B7A1A46FB681343FB607B68DB68FA68F8
S11323101343FB607B681B8A1A46FB681343FB600C
S1132320064AFB6853607B681B78002B02D00120AF
S1132330FFF798FF00BF1037BD4680BD00A00840DE
S113234080B485B000AF78600D4B5B68FB60FB68C0
S113235023F48033FB607B68002B08D0B3F5803F07
S113236000D005E0FB6843F48033FB6000E000BF6D
S1132370034AFB68536000BF1437BD4680BC7047F6
S113238000A0084080B483B000AF03460A46FB8037
S113239013467B717B79002B06D0094B9A68FB8826
S11323A0074913438B6006E0054B9A68FB88DB43BF
S11323B0034913408B6000BF0C37BD4680BC704797
S11323C000A0084080B584B000AFF860B96013463F
S11323D0FB71FB68072B00F2B38001A252F823F0D3
S11323E00124000029240000512400007924000065
S11323F0A1240000C9240000F124000019250000D4
S1132400BB681F2B06DCBB68FA7919464F48FFF7F7
S113241045FF96E0BB68203BBB60BB68FA79194670
S11324204B48FFF73BFF8CE0BB681F2B06DCBB6807
S1132430FA7919464748FFF731FF82E0BB68203B31
S1132440BB60BB68FA7919464348FFF727FF78E079
S1132450BB681F2B06DCBB68FA7919463F48FFF7B7
S11324601DFF6EE0BB68203BBB60BB68FA79194670
S11324703B48FFF713FF64E0BB681F2B06DCBB6817
S1132480FA7919463748FFF709FF5AE0BB68203B41
S1132490BB60BB68FA7919463348FFF7FFFE50E08A
S11324A0BB681F2B06DCBB68FA7919462F48FFF777
S11324B0F5FE46E0BB68203BBB60BB68FA79194671
S11324C02B48FFF7EBFE3CE0BB681F2B06DCBB6828
S11324D0FA7919462748FFF7E1FE32E0BB68203B52
S11324E0BB60BB68FA7919462348FFF7D7FE28E09A
S11324F0BB681F2B06DCBB68FA7919461F48FFF737
S1132500CDFE1EE0BB68203BBB60BB68FA79194670
S11325101B48FFF7C3FE14E0BB681F2B06DCBB6837
S1132520FA7919461748FFF7B9FE0AE0BB68203B61
S1132530BB60BB68FA7919461348FFF7AFFE00E0A9
S113254000BF00BF1037BD4680BD00BF40A008409B
S113255050A0084044A0084054A0084048A00840A7
S113256058A008404CA008405CA00840CCA00840FB
S1132570B4A00840D0A00840B8A00840D4A00840A7
S1132580BCA00840D8A00840C0A0084080B487B0D0
S113259000AFF860B9607A60FB68072B00F2AC808A
S11325A001A252F823F000BFC9250000ED25000068
S11325B0112600003526000059260000812600005F
S11325C0A9260000D12600004E4B1B6C7B61BB6822
S11325D0DB437A6913407B61BA687B6813407A698C
S11325E013437B61474A7B69136486E0454B5B6C0C
S11325F07B61BB68DB437A6913407B61BA687B68A3
S113260013407A6913437B613E4A7B69536474E0E7
S11326103C4B9B6C7B61BB68DB437A6913407B61F9
S1132620BA687B6813407A6913437B61354A7B69D6
S1132630936462E0334BDB6C7B61BB68DB437A6998
S113264013407B61BA687B6813407A6913437B61EA
S11326502C4A7B69D36450E02A4BD3F8CC307B619D
S1132660BB68DB437A6913407B61BA687B681340BB
S11326707A6913437B61234A7B69C2F8CC303CE01E
S1132680204BD3F8D0307B61BB68DB437A691340BD
S11326907B61BA687B6813407A6913437B61194A8A
S11326A07B69C2F8D03028E0164BD3F8D4307B6174
S11326B0BB68DB437A6913407B61BA687B6813406B
S11326C07A6913437B610F4A7B69C2F8D43014E002
S11326D00C4BD3F8D8307B61BB68DB437A69134079
S11326E07B61BA687B6813407A6913437B61054A4E
S11326F07B69C2F8D83000E000BF00BF1C37BD467C
S113270080BC704700A0084080B487B000AFF86078
S1132710B9607A60FB68072B00F2AC8001A252F822
S113272023F000BF45270000692700008D27000023
S1132730B1270000D5270000FD2700002528000050
S11327404D2800004E4B1B6D7B61BB68DB437A69EF
S113275013407B61BA687B6813407A6913437B61D9
S1132760474A7B69136586E0454B5B6D7B61BB68BB
S1132770DB437A6913407B61BA687B6813407A69EA
S113278013437B613E4A7B69536574E03C4B9B6D0C
S11327907B61BB68DB437A6913407B61BA687B6801
S11327A013407A6913437B61354A7B69936562E020
S11327B0334BDB6D7B61BB68DB437A6913407B6120
S11327C0BA687B6813407A6913437B612C4A7B693E
S11327D0D36550E02A4BD3F8B4307B61BB68DB434C
S11327E07A6913407B61BA687B6813407A69134342
S11327F07B61234A7B69C2F8B4303CE0204BD3F8B8
S1132800B8307B61BB68DB437A6913407B61BA688B
S11328107B6813407A6913437B61194A7B69C2F868
S1132820B83028E0164BD3F8BC307B61BB68DB437F
S11328307A6913407B61BA687B6813407A691343F1
S11328407B610F4A7B69C2F8BC3014E00C4BD3F8AF
S1132850C0307B61BB68DB437A6913407B61BA6833
S11328607B6813407A6913437B61054A7B69C2F82C
S1132870C03000E000BF00BF1C37BD4680BC7047BD
S113288000A0084080B483B000AF7860064B5B685A
S113289023F4E01204497B6813434B6000BF0C37F8
S11328A0BD4680BC704700BF00A0084080B487B01C
S11328B000AFF860B9607A60FB6803F10473DA0072
S11328C0BB6813449B007B617B697A681A6000BF14
S11328D01C37BD4680BC704780B582B000AF7860BD
S11328E00B46FB70FB78002B01D000F0EFFA7B68FD
S11328F01B7D184600F022F97B685B789B007A68A0
S113290092781A437B689B681A437B68DB681A4396
S11329107B68DB785B021A437B681B799B021A4352
S11329207B685B795B031A437B689B795B041A437E
S11329307B68DB791B041A437B685B7C9B053F49FE
S113294013430B607B681B780021184600F0D6F80F
S11329507B681B7E1A467B68DB7E5B001A437B68C0
S11329605B7E9B001A437B689B7E9B011A437B68BA
S11329701B7F1B011A437B685B7F1B021A437B6826
S11329809B7F9B021A437B681B6A1A437B6893F8FC
S113299024301B051A437B6893F825309B051A43A2
S11329A07B689B6A254913438B607B689B8D1A4621
S11329B07B6893F83B309B021A437B6893F83C3066
S11329C09B031A437B6893F83D309B041A437B684E
S11329D093F83E309B051A437B6893F834305B00D0
S11329E01A437B6893F835309B001A437B6893F84D
S11329F03630DB001A437B6893F837301B011A43E7
S1132A007B6893F838305B011A437B6893F839305C
S1132A109B011A437B6893F83A30DB01074913435F
S1132A20CB607B681B6B184600F0F2F97B681A7C5C
S1132A30024B1A6100BF0837BD4680BD00C0084084
S1132A4080B588B000AF786039600023FB61012352
S1132A50BB613F237B617B68002B03D12548FEF7D4
S1132A60AFFE78603B68002B0CD03A687B689A42D2
S1132A7000BF07E0FB690133FB610122FB6902FA35
S1132A8003F3BB613B68BA6902FB03F37A68B2FBE8
S1132A90F3F27B6901339A4202D9FB69062BE9D927
S1132AA03B68BA6902FB03F37A68B2FBF3F3013BB8
S1132AB07B61114B5B6823F47F2323F4E0633B6168
S1132AC0FB691A027B691B0313433A6913433B6195
S1132AD0094A3B6953607B690133BA6902FB03F31A
S1132AE07A68B2FBF3F3FB60FB6818462037BD46F7
S1132AF080BD00BF80062E0000C0084080B584B0B1
S1132B0000AF03460A46FB711346BB710A4B1B68B0
S1132B1023F00303FB60FB79FA681343FB60064A66
S1132B20FB681360BB79002B01D000F081F900BF72
S1132B301037BD4680BD00BF00C0084080B485B0DA
S1132B4000AF0346FB71094B5B6823F44003FB6051
S1132B50FB799B05FA681343FB60044AFB685360E6
S1132B6000BF1437BD4680BC704700BF00C008409A
S1132B7080B485B000AF03460A46FB711346BB71AF
S1132B80FB79002B0FD0012B00D01AE00F4B5B68B0
S1132B9023F00303FB60BB79FA681343FB600B4A21
S1132BA0FB6853600DE0094B5B6823F07003FB6026
S1132BB0BB791B01FA681343FB60044AFB6853604A
S1132BC000BF00BF1437BD4680BC704700C008403A
S1132BD080B584B000AF78600023FB600AE0FB6836
S1132BE05B017A681344F968184600F00BF8FB6837
S1132BF00133FB60FB680F2BF1D900BF1037BD46D2
S1132C0080BD000080B584B000AF786039607B6817
S1132C105B68B3F5C03F7B681B7A032B0AD13B6822
S1132C200C2B07D03B680D2B04D03B680E2B01D036
S1132C303B680F2B00BF7B681B7A032B0AD13B68D0
S1132C40002B07D03B68012B04D03B68022B01D03A
S1132C503B68032B00BF394B9A6B3B685B00032135
S1132C6001FA03F3DB431340FB607B681B7A1A46CB
S1132C703B685B0002FA03F3FA681343FB602F4AD4
S1132C80FB6893633B68D8B27B68D97B7B681A7C0A
S1132C907B685B8A00F05AF87B685B7B5A047B682C
S1132CA09B7B9B0413437A68D28A13437A68128B02
S1132CB01A437B685B681A437B685B7ADB041F49B1
S1132CC01A433B682C331B010B4404331A607B68A2
S1132CD0DA697B689B7A5B041A437B681B7B9B04E1
S1132CE01A437B68DB7ADB0414491A433B681B01F3
S1132CF00B4403F532731A603B68D8B27B68998A37
S1132D007B685B8B1A4600F045F87B689B781A4613
S1132D1039680B48FFF7CAFD7B685B781A46396847
S1132D200848FFF7C3FD7B681B781A4639680648D4
S1132D30FFF7BCFD00BF1037BD4680BD00C0084092
S1132D404CC0084054C0084018C0084090B482B039
S1132D5000AF0446084611461A462346FB71034653
S1132D60BB710B467B7113467B80BA797B799B01DF
S1132D7042EA03017B885A030548FB790A432C3352
S1132D801B0103441A6000BF0837BD4690BC70475E
S1132D9000C0084080B485B000AF0346FB710B4609
S1132DA0BB8013467B80194AFB792C331B011344E7
S1132DB004331B6823F47F6323F00F03FB60BB8899
S1132DC0FA681343FB60114AFB792C331B0113444B
S1132DD00433FA681A600D4AFB791B01134403F5A6
S1132DE032731B681B0C1B04FB607B88FA6813435B
S1132DF0FB60064AFB791B01134403F53273FA683E
S1132E001A6000BF1437BD4680BC704700C008403C
S1132E1080B483B000AF7860044A7B6803F00F038A
S1132E20136300BF0C37BD4680BC704700C0084028
S1132E3080B400AF00BF0A4B1B6D03F02003002BCE
S1132E40F9D1074B01225A6100BF054B1B6D03F0FA
S1132E502003002BF9D100BFBD4680BC704700BFE2
S1132E6000C0084080B400AF00BF0A4B1B6D03F0E4
S1132E702003002BF9D1074B02225A6100BF054BF6
S1132E801B6D03F02003002BF9D100BFBD4680BCAD
S1132E90704700BF00C0084080B400AF00BF0A4BB9
S1132EA01B6D03F02003002BF9D1074B08225A6154
S1132EB000BF054B1B6D03F02003002BF9D100BFAD
S1132EC0BD4680BC704700BF00C0084080B483B0DA
S1132ED000AF384B0022DA64364B374A5A64354B1C
S1132EE0DB68344A43F00103D36000BF314B1B6DF0
S1132EF003F02003002BF9D12E4B0A225A612D4BEB
S1132F0000221A602B4B00229A602A4B0022DA60BE
S1132F10284B00221A61274B00229A61254B00227C
S1132F209A63244B0022DA63224B00225A65002361
S1132F307B6019E01F4A7B682C331B011344002279
S1132F401A601C4A7B682C331B011344043300228F
S1132F501A60184A7B681B01134403F5327300227C
S1132F601A607B6801337B607B680F2BE2D90023F6
S1132F707B600FE00F4A7B684033002142F8331036
S1132F800C4A7B684033DB00134400225A607B68A0
S1132F9001337B607B680F2BECD900BF054B1B6DA5
S1132FA003F02003002BF9D100BF0C37BD4680BCD1
S1132FB0704700BF00C00840FFFF7F0080B485B0A9
S1132FC000AF78601A4B5B69DBB29B00DBB203F0A5
S1132FD03C03FB73164B1B699B09DBB203F0030331
S1132FE0DAB2FB7B1343FB737B68FA7B9A70104B5A
S1132FF01B69DBB203F03F03DAB27B685A700C4BF7
S11330009B691B09DBB21B01FB73094BDB691B09C1
S1133010DBB203F00F03DAB2FB7B1343FB737B6871
S1133020FA7B1A7000BF1437BD4680BC704700BFDE
S1133030D0FF0FE080B483B000AF78607B680D4AA6
S113304093420BD07B680C4A934207D07B680B4AAF
S1133050934203D07B680A4A934201D1012300E0E2
S1133060002303F00103DBB218460C37BD4680BCD5
S1133070704700BF00000140000401400008014007
S1133080000C014080B584B000AF78603960786886
S1133090FFF7D0FF0023FB603B681B7883F001033C
S11330A0DBB2002B02D07B6802225A607B680022CC
S11330B05A623B689B781A063B68DB781B041A4308
S11330C03B689B799B021A433B68DB791B021343E1
S11330D03A68127A13433A685278002A01D040229F
S11330E000E0002213433A68527A002A01D0802279
S11330F000E0002213433A68927A002A01D0202289
S113310000E0002213433A68D27A002A01D0102248
S113311000E0002213433A68127B002A01D00822FF
S113312000E000221343FB603B681B79002B02D0B4
S11331304FF4005200E000223B685B79002B02D080
S11331404FF0805300E000231343FA681343FB60FD
S11331507B68FA681A603B681B78002B02D07B6896
S113316001225A6000BF1037BD4680BD80B483B0D1
S113317000AF0346FB7197F90730002B0BDBFB799B
S113318003F01F02064997F907305B09012000FA92
S113319002F241F8232000BF0C37BD4680BC7047C3
S11331A000E100E080B483B000AF03463960FB71F6
S11331B097F90730002B0ADB3B68DAB20C4997F920
S11331C007305201D2B20B4483F800230AE03B6873
S11331D0DAB20849FB7903F00F03043B5201D2B27F
S11331E00B441A7600BF0C37BD4680BC704700BF45
S11331F000E100E000ED00E080B483B000AF78604F
S1133200044A7B68C2F81C3100BF0C37BD4680BC41
S1133210704700BF0060004080B584B002AF3960E1
S113322011461A460346FB710B46BB7113467B716C
S1133230BA79F8793B7C01937B79009313463A6819
S11332403968FEF719FF00BF0837BD4680BD00008E
S113325080B400AF034BDB6C1B0EDBB21846BD46DB
S113326080BC7047B081E00F80B582B000AF0E4BD8
S113327001221A64FFF7ECFF0346FB713B1D18465D
S1133280FFF79CFEFB790F2B0AD93B79022B07D958
S1133290064B1B6823F05003044A43F010031360E9
S11332A000BF0837BD4680BD00000C40C0800C4004
S11332B080B483B000AF78604FF6FF7318460C37C4
S11332C0BD4680BC704780B483B000AF78607B6833
S11332D05B6A18460C37BD4680BC704780B483B027
S11332E000AF786039607B683A689A6100BF0C3738
S11332F0BD4680BC704780B483B000AF786039604D
S11333007B68DA683B681A437B68DA6000BF0C3775
S1133310BD4680BC704780B582B000AF786039602C
S11333207868FFF7C5FF7B683A68DA6100BF083741
S1133330BD4680BD80B483B000AF00237B6002E053
S11333407B6801337B607B68034A9342F8DD00BFEE
S11333500C37BD4680BC70478F5F010080B584B0D8
S113336000AF03460A46FB711346BB71FB79AB4AB7
S1133370A2FB0323DB08DBB2FB72FA79A74BA3FBA6
S11333800213D9080B469B000B445B00D31ADBB233
S1133390BB72BB79A14AA2FB0323DB08DBB27B72BD
S11333A0BA799E4BA3FB0213D9080B469B000B442E
S11333B05B00D31ADBB23B720023FB73E1E1FB7BBE
S11333C007F11002134413F8083C092B00F2D681CC
S11333D001A252F823F000BF013400006D34000054
S11333E0C3340000193500006F350000C5350000F6
S11333F0253600007B360000D13600002737000058
S1133400FB7B03F00103DBB2002B2AD1FA7B844956
S11334108B5C43F001038B54FA7B81498B5C43F052
S113342002038B54FA7B7E498B5C43F004038B5478
S1133430FA7B7B498B5C43F008038B54FA7B784915
S11334408B5C43F010038B54FA7B75498B5C43F01F
S113345020038B54FA7B72498B5C6FF386138B5475
S11334608CE1FB7B6E4A0021D15487E1FA7B6C49E5
S11334708B5C6FF300038B54FA7B69498B5C43F0DC
S113348002038B54FA7B66498B5C43F004038B5430
S1133490FA7B63498B5C6FF3C3038B54FA7B6049FB
S11334A08B5C6FF304138B54FA7B5D498B5C6FF375
S11334B045138B54FA7B5A498B5C6FF386138B54F8
S11334C05CE1FA7B56498B5C43F001038B54FA7B35
S11334D053498B5C43F002038B54FA7B50498B5C59
S11334E06FF382038B54FA7B4D498B5C43F00803E2
S11334F08B54FA7B4A498B5C43F010038B54FA7B60
S113350047498B5C6FF345138B54FA7B44498B5CBE
S113351043F040038B5431E1FA7B41498B5C43F027
S113352001038B54FA7B3E498B5C43F002038B54BA
S1133530FA7B3B498B5C43F004038B54FA7B384998
S11335408B5C43F008038B54FA7B35498B5C6FF337
S113355004138B54FA7B32498B5C6FF345138B5401
S1133560FA7B2F498B5C43F040038B5406E1FA7BD2
S11335702B498B5C6FF300038B54FA7B28498B5CDB
S113358043F002038B54FA7B25498B5C43F004031C
S11335908B54FA7B22498B5C6FF3C3038B54FA7B05
S11335A01F498B5C6FF304138B54FA7B1C498B5CAF
S11335B043F020038B54FA7B19498B5C43F040039E
S11335C08B54DBE0FA7B16498B5C43F001038B548C
S11335D0FA7B13498B5C6FF341038B54FA7B1049DC
S11335E08B5C43F004038B54FA7B0D498B5C43F0F2
S11335F008038B54FA7B0A498B5C6FF304138B54D6
S1133600FA7B07498B5C43F020038B54FA7B044913
S11336108B5C43F040038B54B0E000BFCDCCCCCCEA
S113362048020020FA7B5C498B5C43F001038B5415
S1133630FA7B59498B5C6FF341038B54FA7B5649EF
S11336408B5C43F004038B54FA7B53498B5C43F04B
S113365008038B54FA7B50498B5C43F010038B5462
S1133660FA7B4D498B5C43F020038B54FA7B4A4927
S11336708B5C43F040038B5480E0FA7B46498B5CBF
S113368043F001038B54FA7B43498B5C43F0020300
S11336908B54FA7B40498B5C43F004038B54FA7BD4
S11336A03D498B5C6FF3C3038B54FA7B3A498B5CC3
S11336B06FF304138B54FA7B37498B5C6FF3451318
S11336C08B54FA7B34498B5C6FF386138B5455E02F
S11336D0FA7B31498B5C43F001038B54FA7B2E490E
S11336E08B5C43F002038B54FA7B2B498B5C43F0D5
S11336F004038B54FA7B28498B5C43F008038B54F6
S1133700FA7B25498B5C43F010038B54FA7B2249E6
S11337108B5C43F020038B54FA7B1F498B5C43F092
S113372040038B542AE0FA7B1B498B5C43F0010372
S11337308B54FA7B18498B5C43F002038B54FA7B5D
S113374015498B5C43F004038B54FA7B12498B5C60
S113375043F008038B54FA7B0F498B5C6FF304131B
S11337608B54FA7B0C498B5C43F020038B54FA7B1B
S113377009498B5C43F040038B5400BFFB7B01334E
S1133780FB73FB7B032B7FF61AAE034800F040FA71
S113379000BF1037BD4680BD4802002080B586B00A
S11337A000AFB8813981BA800023FB758EE0002315
S11337B0BB7584E000237B753B7BFA7D9A420DD177
S11337C07B7BBA7D9A4209D1FA7D464911F81230C1
S11337D043F0010301F8123001237B753B7AFA7D33
S11337E09A421FD17B7ABA7D9A421BD1BB7D002BB2
S11337F018D0BB7D022B15D8BB7D022B08D1FB7DD5
S1133800384A5B0013445A7842F001025A7007E0C8
S1133810FB7D344A5B0013445A7842F010025A701C
S113382001237B753B79FA7D9A420DD17B79BA7D70
S11338309A4209D1FA7D2B4911F8123043F008035A
S113384001F8123001237B757B7D83F00103DBB229
S1133850002B31D0BB7D032B2ED801A252F823F0CC
S1133860713800008338000095380000A738000044
S1133870FA7D1C4911F812306FF3C30301F81230BA
S11338801AE0FB7D174A5B0013445A786FF3041265
S11338905A7011E0FB7D134A5B0013445A786FF3AE
S11338A000025A7008E0FA7D0E4911F812306FF3E5
S11338B0000301F8123000BFBB7D0133BB75BB7D33
S11338C0032B7FF677AFFB7D0133FB75FB7D032B69
S11338D07FF66DAF034800F0F1F900BF1837BD461D
S11338E080BD00BF4C02002080B582B000AF1248FA
S11338F0FFF7E9FC7860786800F078FA00F09AFA4B
S113390003465A4203F0030302F0030258BF534232
S1133910FB700A4B1B78FA789A42E8D0074AFB7886
S11339201370074B1B780133DAB2054B1A7000BFD2
S11339300837BD4680BD00BF00000140440200209E
S11339402802002080B582B000AFFCF75FFF034679
S11339507B607B680C2B03D8124B00221A701DE08D
S11339607B680C2B06D97B68182B03D80D4B0122DE
S11339701A7013E07B68182B06D97B68242B03D8B4
S1133980084B02221A7009E07B68242B06D97B6855
S1133990302B03D8034B03221A70FFE700BF08370C
S11339A0BD4680BD3802002080B500AFFFF79CFF04
S11339B001210248FFF792FC00BF80BD00040140D2
S11339C080B500AF064B01221A70064B1A78064BDD
S11339D01A704FF40070FFF70FFC00BF80BD00BFEA
S11339E05A020020380200203C02002080B500AFBB
S11339F0FFF7E6FF00BF80BD80B500AFFFF7E0FF33
S1133A0000BF80BD80B586B002AFFFF72DFC00205B
S1133A10FDF740F8012201210320FEF7E9F9042112
S1133A205B48FDF737FD01215A48FDF765FE01218A
S1133A305948FDF761FE01215848FDF75DFE012359
S1133A40012209210120FEF781FB3B4600221A6076
S1133A505A609A601A7301233B7001237B700A2316
S1133A60BB7001214E48FFF746FC43F609514C4810
S1133A70FFF751FC0C20FFF779FB0B20FFF776FBD7
S1133A800120FFF773FB01210C20FFF78BFB0321BF
S1133A900B20FFF787FB04210120FFF783FB3B4644
S1133AA019464048FFF7EEFA3B4619463C48FFF7F3
S1133AB0E9FA012300930023012209210120FFF7E1
S1133AC0ABFB0020FCF752FF374B00221A70364B39
S1133AD000225A70354B00221A70344B00225A705F
S1133AE0334B00221A70324B03225A70314B00229E
S1133AF01A7001210820FDF729F82E4B1B78002BA2
S1133B0020D0294B5B78032B14D1274B1A78284BF0
S1133B101B789A4207D1284B1B780133DAB2264B23
S1133B201A70FFF7E1FE204B00225A70214B00224D
S1133B301A7007E01C4B5B780133DAB21A4B5A70E7
S1133B40FFF7F8FB194A1849194B107852781202FA
S1133B501043002260F30F020878497809020843F1
S1133B60002160F30F0118785B781B0218430023CF
S1133B7060F30F031846FFF711FE104B1A780E4B33
S1133B801B7819461046FFF7E9FBFFF7DBFEB4E7A5
S1133B9040810400005204000062040000D20400CA
S1133BA000040140000001403C02002038020020D3
S1133BB0440200205A02002029020020280200208A
S1133BC080B483B000AF0346FB71FB79002B03D0B4
S1133BD0054B01221A6602E0034B00221A6600BF5D
S1133BE00C37BD4680BC704700A0084080B483B049
S1133BF000AF786000BF054B5A6E7B681340002B02
S1133C00F9D100BF0C37BD4680BC704700A0084006
S1133C1080B586B000AF78604FF0FF30FFF7E6FF65
S1133C200120FFF7CDFF0023BB753BE00023FB75AC
S1133C3032E0BA7DF97D20481346DB009B1A5B0015
S1133C4003440B4407331B783B61BA7DF97D1A4862
S1133C501346DB009B1A5B0003440B441B78FB6098
S1133C60BB7D7A6813441B781A46FB7D42FA03F342
S1133C7003F00103002B06D0FB68396901221846C2
S1133C80FEF7A0FB05E0FB68396900221846FEF741
S1133C9099FBFB7D0133FB75FB7D062BC9D9BB7DED
S1133CA00133BB75BB7D032BC0D90020FFF788FF10
S1133CB000BF1837BD4680BD5000002080B586B0D7
S1133CC000AF78604FF0FF30FFF790FF0120FFF75F
S1133CD077FF0023BB753CE00023FB7533E0BA7D1E
S1133CE0F97D21481346DB009B1A9B0003440B44D7
S1133CF00E331B783B61BA7DF97D1B481346DB000C
S1133D009B1A9B0003440B441B78FB60BB7D5B0048
S1133D107A6813441B881A46FB7D42FA03F303F0C6
S1133D200103002B06D0FB68396901221846FEF70F
S1133D3049FB05E0FB68396900221846FEF742FB9F
S1133D40FB7D0133FB75FB7D0D2BC8D9BB7D013396
S1133D50BB75BB7D062BBFD90020FFF731FF00BF29
S1133D601837BD4680BD00BF8800002008B5074B4A
S1133D70044613B10021AFF30080054B1868836A31
S1133D8003B19847204600F00BF900BF0000000083
S1133D906044000070B500250C4E0D4CA41BA4100B
S1133DA0A54209D100F0FEF800250A4E0A4CA41BD6
S1133DB0A410A54205D170BD56F8253098470135A9
S1133DC0EEE756F8253098470135F2E7B0010020B8
S1133DD0B0010020B0010020B401002003460244D9
S1133DE0934200D1704703F8011BF9E738B50D4B36
S1133DF005461C68A36B7BB9182000F04FF80A4AEB
S1133E000A4BA063C0E90023094B012283600B2302
S1133E1083810023C0E904230022A36B1D615A613E
S1133E2038BD00BF4C0100200E33CDAB34126DE61B
S1133E30ECDE050038B5134B1C68A36B7BB9182066
S1133E4000F02CF8104A114BA063C0E90023104B7A
S1133E50012283600B2383810023C0E90423A16B27
S1133E600C480A694B6950430B4C04FB0300A2FB4A
S1133E7004230344541C43F10005C1E9044525F01F
S1133E80004038BD4C0100200E33CDAB34126DE63A
S1133E90ECDE05002DF451582D7F954C024B014664
S1133EA0186800F003B800BF4C01002070B5CD1CA9
S1133EB025F0030508350C2D38BF0C25002D0646CA
S1133EC001DBA94203D90C233360002070BD00F04C
S1133ED057F8214A1468214691B9204C23681BB92C
S1133EE0304600F03DF820602946304600F038F8AE
S1133EF0431C24D10C233046336000F042F8E4E73D
S1133F000B685B1B18D40B2B0FD90B60CC18CD504E
S1133F10304600F036F804F10B00231D20F00700B2
S1133F20C31AD3D05A42E250D0E74B688C4216BF32
S1133F30636013600C46EBE70C464968CCE7C41C8D
S1133F4024F00304A04205D0211A304600F008F8FA
S1133F500130CFD02560DBE72C02002030020020A6
S1133F6038B50023054C05460846236000F00AF8DE
S1133F70431C02D1236803B12B6038BD5C020020CE
S1133F8070477047044A05491368002B08BF0B4665
S1133F901844106018467047340200206002002064
S1133FA0FEE700BFF8B500BFF8BC08BC9E467047EA
S1133FB0F8B500BFF8BC08BC9E467047000000007E
S1133FC0000000000101010100000000FF000000EA
S1133FD0FF000000FF000000FF000000FF000000E1
S1133FE0FF00000000000000090000000A000000BB
S1133FF00B0000000C00000000000000070000009F
S1134000070700003D000000000000000000000061
S1134010000000010000000000000000000000009B
S11340200000000000000000000000000000040088
S11340300202000000000000000000000000000078
S11340400001000000000100010203000000000064
S1134050000000000000000000000000000000005C
S1134060000000000000000000000000000000004C
S1134070000000000000000000000000000000003C
S1134080000000000000000000000000000000002C
S1134090000000000000000000000000000000001C
S11340A0000000000000000000000000000000000C
S11340B000000000000000000000000000000000FC
S11340C000000000000000000000000000000000EC
S11340D000000000000000000000000000000000DC
S11340E000000000000000000000000000000000CC
S11340F000000000000000000000000000000000BC
S113410000000000000000000000000000000000AB
S1134110000000000000000000000000000000009B
S1134120000000000000000000000000000000008B
S1134130000000000000000000000000000000007B
S11341400000000000000000000000000101010068
S11341500000000000000000010000000100000059
S11341603700000000200E000000000001010100E3
S11341700000000000000000010000000100000039
S11341803700000000200E000000000001010100C3
S11341900000000000000000010000000100000019
S11341A03700000000200E000000000001010100A3
S11341B000000000000000000100000001000000F9
S11341C03700000000200E00000000000000000086
S11341D000000000000000000000000000000000DB
S11341E000000000000000000000000000000000CB
S11341F000000000000000000000000000000000BB
S113420000000000000000000000000000000000AA
S1134210000000000000000000000000000000009A
S1134220000000000000000000000000000000008A
S1134230000000000000000000000000000000007A
S1134240000000000000000000000000000000006A
S1134250000000000000000000000000000000005A
S1134260000000000000000000000000000000004A
S1134270000000000000000000000000000000003A
S1134280000000000000000000000000000000002A
S1134290000000000000000000000000000000001A
S11342A0000000000000000000000000000000000A
S11342B000000000000000000000000000000000FA
S11342C000000000000000000000000000000000EA
S11342D000000000000000000000000000000000DA
S11342E000000000000000000000000000000000CA
S11342F000000000000000000000000000000000BA
S113430000000000000000000000000000000000A9
S11343100000000000000000000000000000000099
S11343200000000000000000000000000000000089
S11343300000000000000000000000000000000079
S11343400000000000000000000000000101000067
S11343500000000000000000010000000F00000049
S113436037000000002000000000000001010000F0
S11343700000000000000000010000000F00000029
S113438037000000002000000000000001010000D0
S11343900000000000000000010000000F00000009
S11343A037000000002000000000000001010000B0
S11343B00000000000000000010000000F000000E9
S11343C03700000000200000000000000000000092
S11343D000000000000000000000000000000000D9
S11343E000000000000000000000000000000000C9
S11343F000000000000000000000000000000000B9
S113440000000000000000000000000000000000A8
S11344100000000000000000000000000000000098
S11344200000000000000000000000000000000088
S11344300000000000000000000000000000000078
S11344400000000000000000000000000100000067
S1134450030040000C000000000000000000000009
S10B44605001002000000000DF
S10B4468B4BCFF7F0100000059
S1134470006CDC0200800000809FD5000100000079
S11344800100000001000000010000000100000024
S11344900100000001000000010000000100000014
S11344A00100000001000000010000000100000004
S11344B001000000010000000100000001000000F4
S11344C007050201030604232323232323230705CB
S11344D002010306042424242424242407050201BD
S11344E003060425252525252525070502010306A0
S11344F0042626262626262601010507070304028C
S11345000302040605060D0E0E0E0D0D0D0D0E0E06
S11345100E0E0D0D01010507070304020302040634
S113452005060F1010100F0F0F0F101010100F0FA3
S1134530010105070703040203020406050611121C
S11345401212111111111212121211110101050787
S113455007030402030204060506131C1C1C1313A0
S113456013131C1C1C1C1313000105070602030172
S11345700302040604051D1E1E1E1D1D1D1D1E1EF8
S11345801E1E1D1D00010507060203010302040689
S113459004051F2020201F1F1F1F202020201F1F55
S11345A0010105070703040203020406050621228C
S11345B022222121212122222222212150010020F4
S11345C000000000000000000000000000000000E7
S11345D000000000000000000000000000000000D7
S11345E000000000000000000000000000000000C7
S11345F000000000000000000000000000000000B7
S113460000000000000000000000000000000000A6
S11346100000000000000000000000000000000096
S10B462001010000DD000000AF
S90301916A
